{
	"_format": "hh-sol-artifact-1",
	"contractName": "Metabet",
	"sourceName": "contracts/Metabet.sol",
	"abi": [
		{
			"inputs": [
				{
					"internalType": "address",
					"name": "_admin",
					"type": "address"
				}
			],
			"stateMutability": "nonpayable",
			"type": "constructor"
		},
		{
			"anonymous": false,
			"inputs": [
				{
					"indexed": true,
					"internalType": "address",
					"name": "owner",
					"type": "address"
				},
				{
					"indexed": true,
					"internalType": "address",
					"name": "spender",
					"type": "address"
				},
				{
					"indexed": false,
					"internalType": "uint256",
					"name": "value",
					"type": "uint256"
				}
			],
			"name": "Approval",
			"type": "event"
		},
		{
			"anonymous": false,
			"inputs": [
				{
					"indexed": true,
					"internalType": "bytes32",
					"name": "role",
					"type": "bytes32"
				},
				{
					"indexed": true,
					"internalType": "bytes32",
					"name": "previousAdminRole",
					"type": "bytes32"
				},
				{
					"indexed": true,
					"internalType": "bytes32",
					"name": "newAdminRole",
					"type": "bytes32"
				}
			],
			"name": "RoleAdminChanged",
			"type": "event"
		},
		{
			"anonymous": false,
			"inputs": [
				{
					"indexed": true,
					"internalType": "bytes32",
					"name": "role",
					"type": "bytes32"
				},
				{
					"indexed": true,
					"internalType": "address",
					"name": "account",
					"type": "address"
				},
				{
					"indexed": true,
					"internalType": "address",
					"name": "sender",
					"type": "address"
				}
			],
			"name": "RoleGranted",
			"type": "event"
		},
		{
			"anonymous": false,
			"inputs": [
				{
					"indexed": true,
					"internalType": "bytes32",
					"name": "role",
					"type": "bytes32"
				},
				{
					"indexed": true,
					"internalType": "address",
					"name": "account",
					"type": "address"
				},
				{
					"indexed": true,
					"internalType": "address",
					"name": "sender",
					"type": "address"
				}
			],
			"name": "RoleRevoked",
			"type": "event"
		},
		{
			"anonymous": false,
			"inputs": [
				{
					"indexed": true,
					"internalType": "address",
					"name": "from",
					"type": "address"
				},
				{
					"indexed": true,
					"internalType": "address",
					"name": "to",
					"type": "address"
				},
				{
					"indexed": false,
					"internalType": "uint256",
					"name": "value",
					"type": "uint256"
				}
			],
			"name": "Transfer",
			"type": "event"
		},
		{
			"inputs": [],
			"name": "DEFAULT_ADMIN_ROLE",
			"outputs": [
				{
					"internalType": "bytes32",
					"name": "",
					"type": "bytes32"
				}
			],
			"stateMutability": "view",
			"type": "function"
		},
		{
			"inputs": [
				{
					"internalType": "address",
					"name": "admin",
					"type": "address"
				}
			],
			"name": "addAdmin",
			"outputs": [],
			"stateMutability": "nonpayable",
			"type": "function"
		},
		{
			"inputs": [
				{
					"internalType": "address",
					"name": "_to",
					"type": "address"
				},
				{
					"internalType": "uint256",
					"name": "_amount",
					"type": "uint256"
				}
			],
			"name": "airdrop",
			"outputs": [],
			"stateMutability": "nonpayable",
			"type": "function"
		},
		{
			"inputs": [
				{
					"internalType": "address",
					"name": "owner",
					"type": "address"
				},
				{
					"internalType": "address",
					"name": "spender",
					"type": "address"
				}
			],
			"name": "allowance",
			"outputs": [
				{
					"internalType": "uint256",
					"name": "",
					"type": "uint256"
				}
			],
			"stateMutability": "view",
			"type": "function"
		},
		{
			"inputs": [
				{
					"internalType": "address",
					"name": "spender",
					"type": "address"
				},
				{
					"internalType": "uint256",
					"name": "amount",
					"type": "uint256"
				}
			],
			"name": "approve",
			"outputs": [
				{
					"internalType": "bool",
					"name": "",
					"type": "bool"
				}
			],
			"stateMutability": "nonpayable",
			"type": "function"
		},
		{
			"inputs": [
				{
					"internalType": "address",
					"name": "account",
					"type": "address"
				}
			],
			"name": "balanceOf",
			"outputs": [
				{
					"internalType": "uint256",
					"name": "",
					"type": "uint256"
				}
			],
			"stateMutability": "view",
			"type": "function"
		},
		{
			"inputs": [],
			"name": "decimals",
			"outputs": [
				{
					"internalType": "uint8",
					"name": "",
					"type": "uint8"
				}
			],
			"stateMutability": "view",
			"type": "function"
		},
		{
			"inputs": [
				{
					"internalType": "address",
					"name": "spender",
					"type": "address"
				},
				{
					"internalType": "uint256",
					"name": "subtractedValue",
					"type": "uint256"
				}
			],
			"name": "decreaseAllowance",
			"outputs": [
				{
					"internalType": "bool",
					"name": "",
					"type": "bool"
				}
			],
			"stateMutability": "nonpayable",
			"type": "function"
		},
		{
			"inputs": [
				{
					"internalType": "bytes32",
					"name": "role",
					"type": "bytes32"
				}
			],
			"name": "getRoleAdmin",
			"outputs": [
				{
					"internalType": "bytes32",
					"name": "",
					"type": "bytes32"
				}
			],
			"stateMutability": "view",
			"type": "function"
		},
		{
			"inputs": [
				{
					"internalType": "bytes32",
					"name": "role",
					"type": "bytes32"
				},
				{
					"internalType": "address",
					"name": "account",
					"type": "address"
				}
			],
			"name": "grantRole",
			"outputs": [],
			"stateMutability": "nonpayable",
			"type": "function"
		},
		{
			"inputs": [
				{
					"internalType": "bytes32",
					"name": "role",
					"type": "bytes32"
				},
				{
					"internalType": "address",
					"name": "account",
					"type": "address"
				}
			],
			"name": "hasRole",
			"outputs": [
				{
					"internalType": "bool",
					"name": "",
					"type": "bool"
				}
			],
			"stateMutability": "view",
			"type": "function"
		},
		{
			"inputs": [
				{
					"internalType": "address",
					"name": "spender",
					"type": "address"
				},
				{
					"internalType": "uint256",
					"name": "addedValue",
					"type": "uint256"
				}
			],
			"name": "increaseAllowance",
			"outputs": [
				{
					"internalType": "bool",
					"name": "",
					"type": "bool"
				}
			],
			"stateMutability": "nonpayable",
			"type": "function"
		},
		{
			"inputs": [
				{
					"internalType": "address",
					"name": "account",
					"type": "address"
				}
			],
			"name": "isAuthorized",
			"outputs": [
				{
					"internalType": "bool",
					"name": "",
					"type": "bool"
				}
			],
			"stateMutability": "view",
			"type": "function"
		},
		{
			"inputs": [],
			"name": "name",
			"outputs": [
				{
					"internalType": "string",
					"name": "",
					"type": "string"
				}
			],
			"stateMutability": "view",
			"type": "function"
		},
		{
			"inputs": [
				{
					"internalType": "address",
					"name": "admin",
					"type": "address"
				}
			],
			"name": "removeAdmin",
			"outputs": [],
			"stateMutability": "nonpayable",
			"type": "function"
		},
		{
			"inputs": [
				{
					"internalType": "bytes32",
					"name": "role",
					"type": "bytes32"
				},
				{
					"internalType": "address",
					"name": "account",
					"type": "address"
				}
			],
			"name": "renounceRole",
			"outputs": [],
			"stateMutability": "nonpayable",
			"type": "function"
		},
		{
			"inputs": [
				{
					"internalType": "bytes32",
					"name": "role",
					"type": "bytes32"
				},
				{
					"internalType": "address",
					"name": "account",
					"type": "address"
				}
			],
			"name": "revokeRole",
			"outputs": [],
			"stateMutability": "nonpayable",
			"type": "function"
		},
		{
			"inputs": [
				{
					"internalType": "bytes4",
					"name": "interfaceId",
					"type": "bytes4"
				}
			],
			"name": "supportsInterface",
			"outputs": [
				{
					"internalType": "bool",
					"name": "",
					"type": "bool"
				}
			],
			"stateMutability": "view",
			"type": "function"
		},
		{
			"inputs": [],
			"name": "symbol",
			"outputs": [
				{
					"internalType": "string",
					"name": "",
					"type": "string"
				}
			],
			"stateMutability": "view",
			"type": "function"
		},
		{
			"inputs": [],
			"name": "totalSupply",
			"outputs": [
				{
					"internalType": "uint256",
					"name": "",
					"type": "uint256"
				}
			],
			"stateMutability": "view",
			"type": "function"
		},
		{
			"inputs": [
				{
					"internalType": "address",
					"name": "to",
					"type": "address"
				},
				{
					"internalType": "uint256",
					"name": "amount",
					"type": "uint256"
				}
			],
			"name": "transfer",
			"outputs": [
				{
					"internalType": "bool",
					"name": "",
					"type": "bool"
				}
			],
			"stateMutability": "nonpayable",
			"type": "function"
		},
		{
			"inputs": [
				{
					"internalType": "address",
					"name": "from",
					"type": "address"
				},
				{
					"internalType": "address",
					"name": "to",
					"type": "address"
				},
				{
					"internalType": "uint256",
					"name": "amount",
					"type": "uint256"
				}
			],
			"name": "transferFrom",
			"outputs": [
				{
					"internalType": "bool",
					"name": "",
					"type": "bool"
				}
			],
			"stateMutability": "nonpayable",
			"type": "function"
		}
	],
	"bytecode": "0x60806040523480156200001157600080fd5b506040516200152c3803806200152c83398101604081905262000034916200031c565b604080518082018252600d81526c26b2ba30b132ba102a37b5b2b760991b6020808301918252835180850190945260078452661351551050915560ca1b908401528151919291620000889160039162000276565b5080516200009e90600490602084019062000276565b505050620000bb6430b236b4b760d91b82620000fc60201b60201c565b6001600160a01b0381166000908152600660205260409020805460ff19166001179055620000f5336a52b7d2dcc80cd2e40000006200010c565b50620003ae565b620001088282620001d2565b5050565b6001600160a01b038216620001675760405162461bcd60e51b815260206004820152601f60248201527f45524332303a206d696e7420746f20746865207a65726f206164647265737300604482015260640160405180910390fd5b80600260008282546200017b91906200034c565b90915550506001600160a01b038216600081815260208181526040808320805486019055518481527fddf252ad1be2c89b69c2b068fc378daa952ba7f163c4a11628f55a4df523b3ef910160405180910390a35050565b60008281526005602090815260408083206001600160a01b038516845290915290205460ff16620001085760008281526005602090815260408083206001600160a01b03851684529091529020805460ff19166001179055620002323390565b6001600160a01b0316816001600160a01b0316837f2f8788117e7eff1d82e926ec794901d17c78024a50270940304540a733656f0d60405160405180910390a45050565b828054620002849062000371565b90600052602060002090601f016020900481019282620002a85760008555620002f3565b82601f10620002c357805160ff1916838001178555620002f3565b82800160010185558215620002f3579182015b82811115620002f3578251825591602001919060010190620002d6565b506200030192915062000305565b5090565b5b8082111562000301576000815560010162000306565b6000602082840312156200032e578081fd5b81516001600160a01b038116811462000345578182fd5b9392505050565b600082198211156200036c57634e487b7160e01b81526011600452602481fd5b500190565b600181811c908216806200038657607f821691505b60208210811415620003a857634e487b7160e01b600052602260045260246000fd5b50919050565b61116e80620003be6000396000f3fe608060405234801561001057600080fd5b50600436106101425760003560e01c806370480275116100b8578063a217fddf1161007c578063a217fddf146102a6578063a457c2d7146102ae578063a9059cbb146102c1578063d547741f146102d4578063dd62ed3e146102e7578063fe9fbb80146102fa57600080fd5b8063704802751461023c57806370a082311461024f5780638ba4cc3c1461027857806391d148541461028b57806395d89b411461029e57600080fd5b806323b872dd1161010a57806323b872dd146101be578063248a9ca3146101d15780632f2ff15d146101f4578063313ce5671461020757806336568abe14610216578063395093511461022957600080fd5b806301ffc9a71461014757806306fdde031461016f578063095ea7b3146101845780631785f53c1461019757806318160ddd146101ac575b600080fd5b61015a610155366004610f4e565b61030d565b60405190151581526020015b60405180910390f35b610177610344565b6040516101669190610feb565b61015a610192366004610eeb565b6103d6565b6101aa6101a5366004610e64565b6103ee565b005b6002545b604051908152602001610166565b61015a6101cc366004610eb0565b610451565b6101b06101df366004610f14565b60009081526005602052604090206001015490565b6101aa610202366004610f2c565b610475565b60405160128152602001610166565b6101aa610224366004610f2c565b61049f565b61015a610237366004610eeb565b61051d565b6101aa61024a366004610e64565b61053f565b6101b061025d366004610e64565b6001600160a01b031660009081526020819052604090205490565b6101aa610286366004610eeb565b610599565b61015a610299366004610f2c565b6105c8565b6101776105f3565b6101b0600081565b61015a6102bc366004610eeb565b610602565b61015a6102cf366004610eeb565b61067d565b6101aa6102e2366004610f2c565b61068b565b6101b06102f5366004610e7e565b6106b0565b61015a610308366004610e64565b6106db565b60006001600160e01b03198216637965db0b60e01b148061033e57506301ffc9a760e01b6001600160e01b03198316145b92915050565b606060038054610353906110e7565b80601f016020809104026020016040519081016040528092919081815260200182805461037f906110e7565b80156103cc5780601f106103a1576101008083540402835291602001916103cc565b820191906000526020600020905b8154815290600101906020018083116103af57829003601f168201915b5050505050905090565b6000336103e4818585610701565b5060019392505050565b6103f7336106db565b61041c5760405162461bcd60e51b81526004016104139061101e565b60405180910390fd5b6001600160a01b0381166000908152600660205260409020805460ff1916905561044e6430b236b4b760d91b82610825565b50565b60003361045f85828561088c565b61046a858585610906565b506001949350505050565b60008281526005602052604090206001015461049081610aaa565b61049a8383610ab4565b505050565b6001600160a01b038116331461050f5760405162461bcd60e51b815260206004820152602f60248201527f416363657373436f6e74726f6c3a2063616e206f6e6c792072656e6f756e636560448201526e103937b632b9903337b91039b2b63360891b6064820152608401610413565b6105198282610825565b5050565b6000336103e481858561053083836106b0565b61053a919061106d565b610701565b610548336106db565b6105645760405162461bcd60e51b81526004016104139061101e565b6001600160a01b0381166000908152600660205260409020805460ff1916600117905561044e6430b236b4b760d91b82610ab4565b6105a2336106db565b6105be5760405162461bcd60e51b81526004016104139061101e565b6105198282610b3a565b60009182526005602090815260408084206001600160a01b0393909316845291905290205460ff1690565b606060048054610353906110e7565b6000338161061082866106b0565b9050838110156106705760405162461bcd60e51b815260206004820152602560248201527f45524332303a2064656372656173656420616c6c6f77616e63652062656c6f77604482015264207a65726f60d81b6064820152608401610413565b61046a8286868403610701565b6000336103e4818585610906565b6000828152600560205260409020600101546106a681610aaa565b61049a8383610825565b6001600160a01b03918216600090815260016020908152604080832093909416825291909152205490565b60006106ef6430b236b4b760d91b836105c8565b156106fc57506001919050565b919050565b6001600160a01b0383166107635760405162461bcd60e51b8152602060048201526024808201527f45524332303a20617070726f76652066726f6d20746865207a65726f206164646044820152637265737360e01b6064820152608401610413565b6001600160a01b0382166107c45760405162461bcd60e51b815260206004820152602260248201527f45524332303a20617070726f766520746f20746865207a65726f206164647265604482015261737360f01b6064820152608401610413565b6001600160a01b0383811660008181526001602090815260408083209487168084529482529182902085905590518481527f8c5be1e5ebec7d5bd14f71427d1e84f3dd0314c0f7b2291e5b200ac8c7c3b925910160405180910390a3505050565b61082f82826105c8565b156105195760008281526005602090815260408083206001600160a01b0385168085529252808320805460ff1916905551339285917ff6391f5c32d9c69d2a47ea670b442974b53935d1edc7fd64eb21e047a839171b9190a45050565b600061089884846106b0565b9050600019811461090057818110156108f35760405162461bcd60e51b815260206004820152601d60248201527f45524332303a20696e73756666696369656e7420616c6c6f77616e63650000006044820152606401610413565b6109008484848403610701565b50505050565b6001600160a01b03831661096a5760405162461bcd60e51b815260206004820152602560248201527f45524332303a207472616e736665722066726f6d20746865207a65726f206164604482015264647265737360d81b6064820152608401610413565b6001600160a01b0382166109cc5760405162461bcd60e51b815260206004820152602360248201527f45524332303a207472616e7366657220746f20746865207a65726f206164647260448201526265737360e81b6064820152608401610413565b6001600160a01b03831660009081526020819052604090205481811015610a445760405162461bcd60e51b815260206004820152602660248201527f45524332303a207472616e7366657220616d6f756e7420657863656564732062604482015265616c616e636560d01b6064820152608401610413565b6001600160a01b03848116600081815260208181526040808320878703905593871680835291849020805487019055925185815290927fddf252ad1be2c89b69c2b068fc378daa952ba7f163c4a11628f55a4df523b3ef910160405180910390a3610900565b61044e8133610bf9565b610abe82826105c8565b6105195760008281526005602090815260408083206001600160a01b03851684529091529020805460ff19166001179055610af63390565b6001600160a01b0316816001600160a01b0316837f2f8788117e7eff1d82e926ec794901d17c78024a50270940304540a733656f0d60405160405180910390a45050565b6001600160a01b038216610b905760405162461bcd60e51b815260206004820152601f60248201527f45524332303a206d696e7420746f20746865207a65726f2061646472657373006044820152606401610413565b8060026000828254610ba2919061106d565b90915550506001600160a01b038216600081815260208181526040808320805486019055518481527fddf252ad1be2c89b69c2b068fc378daa952ba7f163c4a11628f55a4df523b3ef910160405180910390a35050565b610c0382826105c8565b61051957610c1081610c52565b610c1b836020610c64565b604051602001610c2c929190610f76565b60408051601f198184030181529082905262461bcd60e51b825261041391600401610feb565b606061033e6001600160a01b03831660145b60606000610c73836002611085565b610c7e90600261106d565b67ffffffffffffffff811115610ca457634e487b7160e01b600052604160045260246000fd5b6040519080825280601f01601f191660200182016040528015610cce576020820181803683370190505b509050600360fc1b81600081518110610cf757634e487b7160e01b600052603260045260246000fd5b60200101906001600160f81b031916908160001a905350600f60fb1b81600181518110610d3457634e487b7160e01b600052603260045260246000fd5b60200101906001600160f81b031916908160001a9053506000610d58846002611085565b610d6390600161106d565b90505b6001811115610df7576f181899199a1a9b1b9c1cb0b131b232b360811b85600f1660108110610da557634e487b7160e01b600052603260045260246000fd5b1a60f81b828281518110610dc957634e487b7160e01b600052603260045260246000fd5b60200101906001600160f81b031916908160001a90535060049490941c93610df0816110d0565b9050610d66565b508315610e465760405162461bcd60e51b815260206004820181905260248201527f537472696e67733a20686578206c656e67746820696e73756666696369656e746044820152606401610413565b9392505050565b80356001600160a01b03811681146106fc57600080fd5b600060208284031215610e75578081fd5b610e4682610e4d565b60008060408385031215610e90578081fd5b610e9983610e4d565b9150610ea760208401610e4d565b90509250929050565b600080600060608486031215610ec4578081fd5b610ecd84610e4d565b9250610edb60208501610e4d565b9150604084013590509250925092565b60008060408385031215610efd578182fd5b610f0683610e4d565b946020939093013593505050565b600060208284031215610f25578081fd5b5035919050565b60008060408385031215610f3e578182fd5b82359150610ea760208401610e4d565b600060208284031215610f5f578081fd5b81356001600160e01b031981168114610e46578182fd5b7f416363657373436f6e74726f6c3a206163636f756e7420000000000000000000815260008351610fae8160178501602088016110a4565b7001034b99036b4b9b9b4b733903937b6329607d1b6017918401918201528351610fdf8160288401602088016110a4565b01602801949350505050565b602081526000825180602084015261100a8160408501602087016110a4565b601f01601f19169190910160400192915050565b6020808252602f908201527f4d6574616265743a5265737472696374656420746f206f6e6c7920617574686f60408201526e3934bd32b21030b1b1b7bab73a399760891b606082015260800190565b6000821982111561108057611080611122565b500190565b600081600019048311821515161561109f5761109f611122565b500290565b60005b838110156110bf5781810151838201526020016110a7565b838111156109005750506000910152565b6000816110df576110df611122565b506000190190565b600181811c908216806110fb57607f821691505b6020821081141561111c57634e487b7160e01b600052602260045260246000fd5b50919050565b634e487b7160e01b600052601160045260246000fdfea2646970667358221220cd3f0fe7a372c399dd88884186bb929d1ae9030b166813678b8fbab1cc1c44d264736f6c63430008040033",
	"linkReferences": {},
	"deployedLinkReferences": {}
}