{
  "_format": "hh-sol-artifact-1",
  "contractName": "Governance",
  "sourceName": "contracts/Governance.sol",
  "abi": [
    {
      "inputs": [
        {
          "internalType": "address",
          "name": "_team",
          "type": "address"
        }
      ],
      "stateMutability": "nonpayable",
      "type": "constructor"
    },
    {
      "anonymous": false,
      "inputs": [
        {
          "indexed": true,
          "internalType": "address",
          "name": "owner",
          "type": "address"
        },
        {
          "indexed": true,
          "internalType": "address",
          "name": "spender",
          "type": "address"
        },
        {
          "indexed": false,
          "internalType": "uint256",
          "name": "value",
          "type": "uint256"
        }
      ],
      "name": "Approval",
      "type": "event"
    },
    {
      "anonymous": false,
      "inputs": [
        {
          "indexed": true,
          "internalType": "address",
          "name": "from",
          "type": "address"
        },
        {
          "indexed": true,
          "internalType": "address",
          "name": "to",
          "type": "address"
        },
        {
          "indexed": false,
          "internalType": "uint256",
          "name": "value",
          "type": "uint256"
        }
      ],
      "name": "Transfer",
      "type": "event"
    },
    {
      "anonymous": false,
      "inputs": [
        {
          "indexed": false,
          "internalType": "address",
          "name": "executor",
          "type": "address"
        },
        {
          "indexed": false,
          "internalType": "bool",
          "name": "result",
          "type": "bool"
        }
      ],
      "name": "VoteExecuted",
      "type": "event"
    },
    {
      "anonymous": false,
      "inputs": [
        {
          "indexed": true,
          "internalType": "address",
          "name": "user",
          "type": "address"
        },
        {
          "indexed": false,
          "internalType": "uint256",
          "name": "voteId",
          "type": "uint256"
        },
        {
          "indexed": false,
          "internalType": "uint256",
          "name": "timestamp",
          "type": "uint256"
        },
        {
          "indexed": true,
          "internalType": "address",
          "name": "voteAddress",
          "type": "address"
        }
      ],
      "name": "VoteProposed",
      "type": "event"
    },
    {
      "anonymous": false,
      "inputs": [
        {
          "indexed": true,
          "internalType": "address",
          "name": "user",
          "type": "address"
        },
        {
          "indexed": false,
          "internalType": "uint256",
          "name": "voteCount",
          "type": "uint256"
        }
      ],
      "name": "Voted",
      "type": "event"
    },
    {
      "inputs": [
        {
          "internalType": "address",
          "name": "owner",
          "type": "address"
        },
        {
          "internalType": "address",
          "name": "spender",
          "type": "address"
        }
      ],
      "name": "allowance",
      "outputs": [
        {
          "internalType": "uint256",
          "name": "",
          "type": "uint256"
        }
      ],
      "stateMutability": "view",
      "type": "function"
    },
    {
      "inputs": [
        {
          "internalType": "address",
          "name": "spender",
          "type": "address"
        },
        {
          "internalType": "uint256",
          "name": "amount",
          "type": "uint256"
        }
      ],
      "name": "approve",
      "outputs": [
        {
          "internalType": "bool",
          "name": "",
          "type": "bool"
        }
      ],
      "stateMutability": "nonpayable",
      "type": "function"
    },
    {
      "inputs": [
        {
          "internalType": "address",
          "name": "account",
          "type": "address"
        }
      ],
      "name": "balanceOf",
      "outputs": [
        {
          "internalType": "uint256",
          "name": "",
          "type": "uint256"
        }
      ],
      "stateMutability": "view",
      "type": "function"
    },
    {
      "inputs": [],
      "name": "decimals",
      "outputs": [
        {
          "internalType": "uint8",
          "name": "",
          "type": "uint8"
        }
      ],
      "stateMutability": "view",
      "type": "function"
    },
    {
      "inputs": [
        {
          "internalType": "address",
          "name": "spender",
          "type": "address"
        },
        {
          "internalType": "uint256",
          "name": "subtractedValue",
          "type": "uint256"
        }
      ],
      "name": "decreaseAllowance",
      "outputs": [
        {
          "internalType": "bool",
          "name": "",
          "type": "bool"
        }
      ],
      "stateMutability": "nonpayable",
      "type": "function"
    },
    {
      "inputs": [
        {
          "internalType": "uint256",
          "name": "_voteCount",
          "type": "uint256"
        }
      ],
      "name": "executeVote",
      "outputs": [],
      "stateMutability": "nonpayable",
      "type": "function"
    },
    {
      "inputs": [
        {
          "internalType": "address",
          "name": "spender",
          "type": "address"
        },
        {
          "internalType": "uint256",
          "name": "addedValue",
          "type": "uint256"
        }
      ],
      "name": "increaseAllowance",
      "outputs": [
        {
          "internalType": "bool",
          "name": "",
          "type": "bool"
        }
      ],
      "stateMutability": "nonpayable",
      "type": "function"
    },
    {
      "inputs": [
        {
          "internalType": "address",
          "name": "_chrysus",
          "type": "address"
        },
        {
          "internalType": "address",
          "name": "_swapSolution",
          "type": "address"
        },
        {
          "internalType": "address",
          "name": "_lending",
          "type": "address"
        },
        {
          "internalType": "address",
          "name": "_stabilityModule",
          "type": "address"
        }
      ],
      "name": "init",
      "outputs": [],
      "stateMutability": "nonpayable",
      "type": "function"
    },
    {
      "inputs": [],
      "name": "lastMintTimestamp",
      "outputs": [
        {
          "internalType": "uint256",
          "name": "",
          "type": "uint256"
        }
      ],
      "stateMutability": "view",
      "type": "function"
    },
    {
      "inputs": [],
      "name": "mintDaily",
      "outputs": [],
      "stateMutability": "nonpayable",
      "type": "function"
    },
    {
      "inputs": [],
      "name": "name",
      "outputs": [
        {
          "internalType": "string",
          "name": "",
          "type": "string"
        }
      ],
      "stateMutability": "view",
      "type": "function"
    },
    {
      "inputs": [
        {
          "internalType": "address",
          "name": "_contract",
          "type": "address"
        },
        {
          "internalType": "bytes4",
          "name": "_function",
          "type": "bytes4"
        },
        {
          "internalType": "bytes",
          "name": "_data",
          "type": "bytes"
        }
      ],
      "name": "proposeVote",
      "outputs": [],
      "stateMutability": "nonpayable",
      "type": "function"
    },
    {
      "inputs": [],
      "name": "symbol",
      "outputs": [
        {
          "internalType": "string",
          "name": "",
          "type": "string"
        }
      ],
      "stateMutability": "view",
      "type": "function"
    },
    {
      "inputs": [],
      "name": "team",
      "outputs": [
        {
          "internalType": "address",
          "name": "",
          "type": "address"
        }
      ],
      "stateMutability": "view",
      "type": "function"
    },
    {
      "inputs": [],
      "name": "totalSupply",
      "outputs": [
        {
          "internalType": "uint256",
          "name": "",
          "type": "uint256"
        }
      ],
      "stateMutability": "view",
      "type": "function"
    },
    {
      "inputs": [
        {
          "internalType": "address",
          "name": "to",
          "type": "address"
        },
        {
          "internalType": "uint256",
          "name": "amount",
          "type": "uint256"
        }
      ],
      "name": "transfer",
      "outputs": [
        {
          "internalType": "bool",
          "name": "",
          "type": "bool"
        }
      ],
      "stateMutability": "nonpayable",
      "type": "function"
    },
    {
      "inputs": [
        {
          "internalType": "address",
          "name": "from",
          "type": "address"
        },
        {
          "internalType": "address",
          "name": "to",
          "type": "address"
        },
        {
          "internalType": "uint256",
          "name": "amount",
          "type": "uint256"
        }
      ],
      "name": "transferFrom",
      "outputs": [
        {
          "internalType": "bool",
          "name": "",
          "type": "bool"
        }
      ],
      "stateMutability": "nonpayable",
      "type": "function"
    },
    {
      "inputs": [
        {
          "internalType": "uint256",
          "name": "_voteCount",
          "type": "uint256"
        },
        {
          "internalType": "bool",
          "name": "_supports",
          "type": "bool"
        },
        {
          "internalType": "bool",
          "name": "_abstains",
          "type": "bool"
        }
      ],
      "name": "vote",
      "outputs": [],
      "stateMutability": "nonpayable",
      "type": "function"
    },
    {
      "inputs": [],
      "name": "voteCount",
      "outputs": [
        {
          "internalType": "uint256",
          "name": "",
          "type": "uint256"
        }
      ],
      "stateMutability": "view",
      "type": "function"
    },
    {
      "inputs": [
        {
          "internalType": "uint256",
          "name": "",
          "type": "uint256"
        }
      ],
      "name": "voteInfo",
      "outputs": [
        {
          "internalType": "uint256",
          "name": "startTime",
          "type": "uint256"
        },
        {
          "internalType": "uint256",
          "name": "tallyTime",
          "type": "uint256"
        },
        {
          "internalType": "uint256",
          "name": "amountSupporting",
          "type": "uint256"
        },
        {
          "internalType": "uint256",
          "name": "amountAgainst",
          "type": "uint256"
        },
        {
          "internalType": "uint256",
          "name": "amountAbstained",
          "type": "uint256"
        },
        {
          "internalType": "bool",
          "name": "executed",
          "type": "bool"
        },
        {
          "internalType": "bool",
          "name": "result",
          "type": "bool"
        },
        {
          "internalType": "bytes4",
          "name": "voteFunction",
          "type": "bytes4"
        },
        {
          "internalType": "address",
          "name": "voteAddress",
          "type": "address"
        },
        {
          "internalType": "address",
          "name": "initiator",
          "type": "address"
        },
        {
          "internalType": "bytes",
          "name": "data",
          "type": "bytes"
        }
      ],
      "stateMutability": "view",
      "type": "function"
    }
  ],
  "bytecode": "0x60806040526000600a553480156200001657600080fd5b50604051620048c4380380620048c483398181016040528101906200003c9190620003bc565b6040518060400160405280601281526020017f4368727973757320476f7665726e616e636500000000000000000000000000008152506040518060400160405280600381526020017f43475400000000000000000000000000000000000000000000000000000000008152508160039080519060200190620000c0929190620002f5565b508060049080519060200190620000d9929190620002f5565b505050600073ffffffffffffffffffffffffffffffffffffffff168173ffffffffffffffffffffffffffffffffffffffff1614156200011757600080fd5b62000135816b025391ee35a05c54d00000006200017d60201b60201c565b80600960006101000a81548173ffffffffffffffffffffffffffffffffffffffff021916908373ffffffffffffffffffffffffffffffffffffffff16021790555050620005e2565b600073ffffffffffffffffffffffffffffffffffffffff168273ffffffffffffffffffffffffffffffffffffffff161415620001f0576040517f08c379a0000000000000000000000000000000000000000000000000000000008152600401620001e79062000420565b60405180910390fd5b6200020460008383620002eb60201b60201c565b806002600082825462000218919062000470565b92505081905550806000808473ffffffffffffffffffffffffffffffffffffffff1673ffffffffffffffffffffffffffffffffffffffff168152602001908152602001600020600082825401925050819055508173ffffffffffffffffffffffffffffffffffffffff16600073ffffffffffffffffffffffffffffffffffffffff167fddf252ad1be2c89b69c2b068fc378daa952ba7f163c4a11628f55a4df523b3ef83604051620002cb919062000442565b60405180910390a3620002e760008383620002f060201b60201c565b5050565b505050565b505050565b82805462000303906200050b565b90600052602060002090601f01602090048101928262000327576000855562000373565b82601f106200034257805160ff191683800117855562000373565b8280016001018555821562000373579182015b828111156200037257825182559160200191906001019062000355565b5b50905062000382919062000386565b5090565b5b80821115620003a157600081600090555060010162000387565b5090565b600081519050620003b681620005c8565b92915050565b600060208284031215620003cf57600080fd5b6000620003df84828501620003a5565b91505092915050565b6000620003f7601f836200045f565b915062000404826200059f565b602082019050919050565b6200041a8162000501565b82525050565b600060208201905081810360008301526200043b81620003e8565b9050919050565b60006020820190506200045960008301846200040f565b92915050565b600082825260208201905092915050565b60006200047d8262000501565b91506200048a8362000501565b9250827fffffffffffffffffffffffffffffffffffffffffffffffffffffffffffffffff03821115620004c257620004c162000541565b5b828201905092915050565b6000620004da82620004e1565b9050919050565b600073ffffffffffffffffffffffffffffffffffffffff82169050919050565b6000819050919050565b600060028204905060018216806200052457607f821691505b602082108114156200053b576200053a62000570565b5b50919050565b7f4e487b7100000000000000000000000000000000000000000000000000000000600052601160045260246000fd5b7f4e487b7100000000000000000000000000000000000000000000000000000000600052602260045260246000fd5b7f45524332303a206d696e7420746f20746865207a65726f206164647265737300600082015250565b620005d381620004cd565b8114620005df57600080fd5b50565b6142d280620005f26000396000f3fe608060405234801561001057600080fd5b506004361061012c5760003560e01c80638494ff35116100ad578063a9059cbb11610071578063a9059cbb14610351578063c638407114610381578063dd62ed3e1461039f578063df133bca146103cf578063f98a4eca146103eb5761012c565b80638494ff351461028d57806385f2aef2146102c75780638e80ff5d146102e557806395d89b4114610303578063a457c2d7146103215761012c565b806323b872dd116100f457806323b872dd146101d5578063313ce56714610205578063395093511461022357806370a0823114610253578063785946f4146102835761012c565b806306552ff31461013157806306fdde031461014d578063095ea7b31461016b57806318160ddd1461019b5780631d7ce898146101b9575b600080fd5b61014b60048036038101906101469190612ea7565b610407565b005b610155610669565b60405161016291906135a4565b60405180910390f35b61018560048036038101906101809190612fc0565b6106fb565b6040516101929190613589565b60405180910390f35b6101a361071e565b6040516101b09190613876565b60405180910390f35b6101d360048036038101906101ce9190612f59565b610728565b005b6101ef60048036038101906101ea9190612f0a565b610fbc565b6040516101fc9190613589565b60405180910390f35b61020d610feb565b60405161021a919061396c565b60405180910390f35b61023d60048036038101906102389190612fc0565b610ff4565b60405161024a9190613589565b60405180910390f35b61026d60048036038101906102689190612e42565b61102b565b60405161027a9190613876565b60405180910390f35b61028b611073565b005b6102a760048036038101906102a29190613025565b6112f9565b6040516102be9b9a999897969594939291906138ba565b60405180910390f35b6102cf611442565b6040516102dc9190613545565b60405180910390f35b6102ed611468565b6040516102fa9190613876565b60405180910390f35b61030b61146e565b60405161031891906135a4565b60405180910390f35b61033b60048036038101906103369190612fc0565b611500565b6040516103489190613589565b60405180910390f35b61036b60048036038101906103669190612fc0565b611577565b6040516103789190613589565b60405180910390f35b61038961159a565b6040516103969190613876565b60405180910390f35b6103b960048036038101906103b49190612e6b565b6115a0565b6040516103c69190613876565b60405180910390f35b6103e960048036038101906103e49190613077565b611627565b005b61040560048036038101906104009190613025565b611bf0565b005b600960009054906101000a900473ffffffffffffffffffffffffffffffffffffffff1673ffffffffffffffffffffffffffffffffffffffff163373ffffffffffffffffffffffffffffffffffffffff1614610497576040517f08c379a000000000000000000000000000000000000000000000000000000000815260040161048e906137d6565b60405180910390fd5b60001515600560009054906101000a900460ff161515146104b757600080fd5b83600560016101000a81548173ffffffffffffffffffffffffffffffffffffffff021916908373ffffffffffffffffffffffffffffffffffffffff16021790555082600660006101000a81548173ffffffffffffffffffffffffffffffffffffffff021916908373ffffffffffffffffffffffffffffffffffffffff16021790555081600860006101000a81548173ffffffffffffffffffffffffffffffffffffffff021916908373ffffffffffffffffffffffffffffffffffffffff16021790555080600760006101000a81548173ffffffffffffffffffffffffffffffffffffffff021916908373ffffffffffffffffffffffffffffffffffffffff1602179055506001600560006101000a81548160ff021916908315150217905550600760009054906101000a900473ffffffffffffffffffffffffffffffffffffffff1673ffffffffffffffffffffffffffffffffffffffff166355f3aef0336040518263ffffffff1660e01b81526004016106319190613545565b600060405180830381600087803b15801561064b57600080fd5b505af115801561065f573d6000803e3d6000fd5b5050505050505050565b60606003805461067890613c0d565b80601f01602080910402602001604051908101604052809291908181526020018280546106a490613c0d565b80156106f15780601f106106c6576101008083540402835291602001916106f1565b820191906000526020600020905b8154815290600101906020018083116106d457829003601f168201915b5050505050905090565b600080610706612549565b9050610713818585612551565b600191505092915050565b6000600254905090565b6276a700426107379190613b16565b600760009054906101000a900473ffffffffffffffffffffffffffffffffffffffff1673ffffffffffffffffffffffffffffffffffffffff16631054a824336040518263ffffffff1660e01b81526004016107929190613545565b60a06040518083038186803b1580156107aa57600080fd5b505afa1580156107be573d6000803e3d6000fd5b505050506040513d601f19601f820116820180604052508101906107e29190612ffc565b6020015111806108ad57506276a700426107fc9190613b16565b600760009054906101000a900473ffffffffffffffffffffffffffffffffffffffff1673ffffffffffffffffffffffffffffffffffffffff16631054a824336040518263ffffffff1660e01b81526004016108579190613545565b60a06040518083038186803b15801561086f57600080fd5b505afa158015610883573d6000803e3d6000fd5b505050506040513d601f19601f820116820180604052508101906108a79190612ffc565b60800151115b6108ec576040517f08c379a00000000000000000000000000000000000000000000000000000000081526004016108e390613836565b60405180910390fd5b62278d00426108fb9190613b16565b600760009054906101000a900473ffffffffffffffffffffffffffffffffffffffff1673ffffffffffffffffffffffffffffffffffffffff16631054a824336040518263ffffffff1660e01b81526004016109569190613545565b60a06040518083038186803b15801561096e57600080fd5b505afa158015610982573d6000803e3d6000fd5b505050506040513d601f19601f820116820180604052508101906109a69190612ffc565b60200151106109ea576040517f08c379a00000000000000000000000000000000000000000000000000000000081526004016109e1906136f6565b60405180910390fd5b600560009054906101000a900460ff16610a0357600080fd5b610b036040518060400160405280600681526020017f7374616b65200000000000000000000000000000000000000000000000000000815250670de0b6b3a7640000600760009054906101000a900473ffffffffffffffffffffffffffffffffffffffff1673ffffffffffffffffffffffffffffffffffffffff16631054a824336040518263ffffffff1660e01b8152600401610aa09190613545565b60a06040518083038186803b158015610ab857600080fd5b505afa158015610acc573d6000803e3d6000fd5b505050506040513d601f19601f82011682018060405250810190610af09190612ffc565b60000151610afe9190613a8b565b61271c565b610c006040518060400160405280601381526020017f746f74616c20706f6f6c20616d6f756e742c2000000000000000000000000000815250670de0b6b3a7640000600a600760009054906101000a900473ffffffffffffffffffffffffffffffffffffffff1673ffffffffffffffffffffffffffffffffffffffff16638bf7dd306040518163ffffffff1660e01b815260040160206040518083038186803b158015610baf57600080fd5b505afa158015610bc3573d6000803e3d6000fd5b505050506040513d601f19601f82011682018060405250810190610be7919061304e565b610bf19190613a8b565b610bfb9190613a8b565b61271c565b600a600760009054906101000a900473ffffffffffffffffffffffffffffffffffffffff1673ffffffffffffffffffffffffffffffffffffffff16638bf7dd306040518163ffffffff1660e01b815260040160206040518083038186803b158015610c6a57600080fd5b505afa158015610c7e573d6000803e3d6000fd5b505050506040513d601f19601f82011682018060405250810190610ca2919061304e565b610cac9190613a8b565b600760009054906101000a900473ffffffffffffffffffffffffffffffffffffffff1673ffffffffffffffffffffffffffffffffffffffff16631054a824336040518263ffffffff1660e01b8152600401610d079190613545565b60a06040518083038186803b158015610d1f57600080fd5b505afa158015610d33573d6000803e3d6000fd5b505050506040513d601f19601f82011682018060405250810190610d579190612ffc565b6000015111610d9b576040517f08c379a0000000000000000000000000000000000000000000000000000000008152600401610d9290613736565b60405180910390fd5b600b6000815480929190610dae90613c70565b91905055506000600b5490506000600c60008381526020019081526020016000209050338160060160006101000a81548173ffffffffffffffffffffffffffffffffffffffff021916908373ffffffffffffffffffffffffffffffffffffffff160217905550428160000181905550848160050160066101000a81548173ffffffffffffffffffffffffffffffffffffffff021916908373ffffffffffffffffffffffffffffffffffffffff160217905550838160050160026101000a81548163ffffffff021916908360e01c021790555082816007019080519060200190610e98929190612c46565b50600760009054906101000a900473ffffffffffffffffffffffffffffffffffffffff1673ffffffffffffffffffffffffffffffffffffffff166355f3aef0336040518263ffffffff1660e01b8152600401610ef49190613545565b600060405180830381600087803b158015610f0e57600080fd5b505af1158015610f22573d6000803e3d6000fd5b505050508060050160069054906101000a900473ffffffffffffffffffffffffffffffffffffffff1673ffffffffffffffffffffffffffffffffffffffff163373ffffffffffffffffffffffffffffffffffffffff167f051ad8ea8e4ecc8df043e36af935557864d2a8fd8f3c527a89c2ee91aa0a0b99848460000154604051610fad929190613891565b60405180910390a35050505050565b600080610fc7612549565b9050610fd48582856127b8565b610fdf858585612844565b60019150509392505050565b60006012905090565b600080610fff612549565b905061102081858561101185896115a0565b61101b9190613a35565b612551565b600191505092915050565b60008060008373ffffffffffffffffffffffffffffffffffffffff1673ffffffffffffffffffffffffffffffffffffffff168152602001908152602001600020549050919050565b600560009054906101000a900460ff1661108c57600080fd5b600960009054906101000a900473ffffffffffffffffffffffffffffffffffffffff1673ffffffffffffffffffffffffffffffffffffffff163373ffffffffffffffffffffffffffffffffffffffff161461111c576040517f08c379a0000000000000000000000000000000000000000000000000000000008152600401611113906137b6565b60405180910390fd5b600062015180600a54426111309190613b16565b61113a9190613a8b565b90506000811415611180576040517f08c379a0000000000000000000000000000000000000000000000000000000008152600401611177906136d6565b60405180910390fd5b6111c1600560019054906101000a900473ffffffffffffffffffffffffffffffffffffffff1682693f870857a3e0e38000006111bc9190613abc565b612abc565b611202600660009054906101000a900473ffffffffffffffffffffffffffffffffffffffff1682693f870857a3e0e38000006111fd9190613abc565b612abc565b611243600860009054906101000a900473ffffffffffffffffffffffffffffffffffffffff1682693f870857a3e0e380000061123e9190613abc565b612abc565b611262308269152d02c7e14af680000061125d9190613abc565b612abc565b42600a81905550600760009054906101000a900473ffffffffffffffffffffffffffffffffffffffff1673ffffffffffffffffffffffffffffffffffffffff166355f3aef0336040518263ffffffff1660e01b81526004016112c49190613545565b600060405180830381600087803b1580156112de57600080fd5b505af11580156112f2573d6000803e3d6000fd5b5050505050565b600c6020528060005260406000206000915090508060000154908060010154908060020154908060030154908060040154908060050160009054906101000a900460ff16908060050160019054906101000a900460ff16908060050160029054906101000a900460e01b908060050160069054906101000a900473ffffffffffffffffffffffffffffffffffffffff16908060060160009054906101000a900473ffffffffffffffffffffffffffffffffffffffff16908060070180546113bf90613c0d565b80601f01602080910402602001604051908101604052809291908181526020018280546113eb90613c0d565b80156114385780601f1061140d57610100808354040283529160200191611438565b820191906000526020600020905b81548152906001019060200180831161141b57829003601f168201915b505050505090508b565b600960009054906101000a900473ffffffffffffffffffffffffffffffffffffffff1681565b600a5481565b60606004805461147d90613c0d565b80601f01602080910402602001604051908101604052809291908181526020018280546114a990613c0d565b80156114f65780601f106114cb576101008083540402835291602001916114f6565b820191906000526020600020905b8154815290600101906020018083116114d957829003601f168201915b5050505050905090565b60008061150b612549565b9050600061151982866115a0565b90508381101561155e576040517f08c379a0000000000000000000000000000000000000000000000000000000008152600401611555906137f6565b60405180910390fd5b61156b8286868403612551565b60019250505092915050565b600080611582612549565b905061158f818585612844565b600191505092915050565b600b5481565b6000600160008473ffffffffffffffffffffffffffffffffffffffff1673ffffffffffffffffffffffffffffffffffffffff16815260200190815260200160002060008373ffffffffffffffffffffffffffffffffffffffff1673ffffffffffffffffffffffffffffffffffffffff16815260200190815260200160002054905092915050565b6276a700426116369190613b16565b600760009054906101000a900473ffffffffffffffffffffffffffffffffffffffff1673ffffffffffffffffffffffffffffffffffffffff16631054a824336040518263ffffffff1660e01b81526004016116919190613545565b60a06040518083038186803b1580156116a957600080fd5b505afa1580156116bd573d6000803e3d6000fd5b505050506040513d601f19601f820116820180604052508101906116e19190612ffc565b6020015111806117ac57506276a700426116fb9190613b16565b600760009054906101000a900473ffffffffffffffffffffffffffffffffffffffff1673ffffffffffffffffffffffffffffffffffffffff16631054a824336040518263ffffffff1660e01b81526004016117569190613545565b60a06040518083038186803b15801561176e57600080fd5b505afa158015611782573d6000803e3d6000fd5b505050506040513d601f19601f820116820180604052508101906117a69190612ffc565b60800151115b6117eb576040517f08c379a00000000000000000000000000000000000000000000000000000000081526004016117e290613836565b60405180910390fd5b62278d00426117fa9190613b16565b600760009054906101000a900473ffffffffffffffffffffffffffffffffffffffff1673ffffffffffffffffffffffffffffffffffffffff16631054a824336040518263ffffffff1660e01b81526004016118559190613545565b60a06040518083038186803b15801561186d57600080fd5b505afa158015611881573d6000803e3d6000fd5b505050506040513d601f19601f820116820180604052508101906118a59190612ffc565b60200151106118e9576040517f08c379a00000000000000000000000000000000000000000000000000000000081526004016118e0906136f6565b60405180910390fd5b600560009054906101000a900460ff1661190257600080fd5b600b54831115611947576040517f08c379a000000000000000000000000000000000000000000000000000000000815260040161193e90613816565b60405180910390fd5b6000600c6000858152602001908152602001600020905060008160010154146119a5576040517f08c379a000000000000000000000000000000000000000000000000000000000815260040161199c90613616565b60405180910390fd5b8060080160003373ffffffffffffffffffffffffffffffffffffffff1673ffffffffffffffffffffffffffffffffffffffff16815260200190815260200160002060009054906101000a900460ff1615611a34576040517f08c379a0000000000000000000000000000000000000000000000000000000008152600401611a2b90613716565b60405180910390fd5b60018160080160003373ffffffffffffffffffffffffffffffffffffffff1673ffffffffffffffffffffffffffffffffffffffff16815260200190815260200160002060006101000a81548160ff0219169083151502179055508115611abc57611a9d3361102b565b816004016000828254611ab09190613a35565b92505081905550611b0f565b8215611aea57611acb3361102b565b816002016000828254611ade9190613a35565b92505081905550611b0e565b611af33361102b565b816003016000828254611b069190613a35565b925050819055505b5b600760009054906101000a900473ffffffffffffffffffffffffffffffffffffffff1673ffffffffffffffffffffffffffffffffffffffff166355f3aef0336040518263ffffffff1660e01b8152600401611b6a9190613545565b600060405180830381600087803b158015611b8457600080fd5b505af1158015611b98573d6000803e3d6000fd5b505050503373ffffffffffffffffffffffffffffffffffffffff167f4d99b957a2bc29a30ebd96a7be8e68fe50a3c701db28a91436490b7d53870ca485604051611be29190613876565b60405180910390a250505050565b6276a70042611bff9190613b16565b600760009054906101000a900473ffffffffffffffffffffffffffffffffffffffff1673ffffffffffffffffffffffffffffffffffffffff16631054a824336040518263ffffffff1660e01b8152600401611c5a9190613545565b60a06040518083038186803b158015611c7257600080fd5b505afa158015611c86573d6000803e3d6000fd5b505050506040513d601f19601f82011682018060405250810190611caa9190612ffc565b602001511180611d7557506276a70042611cc49190613b16565b600760009054906101000a900473ffffffffffffffffffffffffffffffffffffffff1673ffffffffffffffffffffffffffffffffffffffff16631054a824336040518263ffffffff1660e01b8152600401611d1f9190613545565b60a06040518083038186803b158015611d3757600080fd5b505afa158015611d4b573d6000803e3d6000fd5b505050506040513d601f19601f82011682018060405250810190611d6f9190612ffc565b60800151115b611db4576040517f08c379a0000000000000000000000000000000000000000000000000000000008152600401611dab90613836565b60405180910390fd5b62278d0042611dc39190613b16565b600760009054906101000a900473ffffffffffffffffffffffffffffffffffffffff1673ffffffffffffffffffffffffffffffffffffffff16631054a824336040518263ffffffff1660e01b8152600401611e1e9190613545565b60a06040518083038186803b158015611e3657600080fd5b505afa158015611e4a573d6000803e3d6000fd5b505050506040513d601f19601f82011682018060405250810190611e6e9190612ffc565b6020015110611eb2576040517f08c379a0000000000000000000000000000000000000000000000000000000008152600401611ea9906136f6565b60405180910390fd5b600560009054906101000a900460ff16611ecb57600080fd5b6000600c60008381526020019081526020016000209050611f436040518060400160405280600481526020017f746f702000000000000000000000000000000000000000000000000000000000815250826004015483600301548460020154611f349190613a35565b611f3e9190613a35565b61271c565b6120396040518060400160405280600781526020017f626f74746f6d200000000000000000000000000000000000000000000000000081525060046003600760009054906101000a900473ffffffffffffffffffffffffffffffffffffffff1673ffffffffffffffffffffffffffffffffffffffff16638bf7dd306040518163ffffffff1660e01b815260040160206040518083038186803b158015611fe857600080fd5b505afa158015611ffc573d6000803e3d6000fd5b505050506040513d601f19601f82011682018060405250810190612020919061304e565b61202a9190613abc565b6120349190613a8b565b61271c565b60046003600760009054906101000a900473ffffffffffffffffffffffffffffffffffffffff1673ffffffffffffffffffffffffffffffffffffffff16638bf7dd306040518163ffffffff1660e01b815260040160206040518083038186803b1580156120a557600080fd5b505afa1580156120b9573d6000803e3d6000fd5b505050506040513d601f19601f820116820180604052508101906120dd919061304e565b6120e79190613abc565b6120f19190613a8b565b81600401548260030154836002015461210a9190613a35565b6121149190613a35565b11612154576040517f08c379a000000000000000000000000000000000000000000000000000000000815260040161214b90613796565b60405180910390fd5b8060050160009054906101000a900460ff16156121a6576040517f08c379a000000000000000000000000000000000000000000000000000000000815260040161219d90613656565b60405180910390fd5b60008160010154146121ed576040517f08c379a00000000000000000000000000000000000000000000000000000000081526004016121e490613616565b60405180910390fd5b600b54821115612232576040517f08c379a000000000000000000000000000000000000000000000000000000000815260040161222990613816565b60405180910390fd5b60006202a30090508082600001544261224b9190613b16565b1161228b576040517f08c379a000000000000000000000000000000000000000000000000000000000815260040161228290613676565b60405180910390fd5b60646033600760009054906101000a900473ffffffffffffffffffffffffffffffffffffffff1673ffffffffffffffffffffffffffffffffffffffff16638bf7dd306040518163ffffffff1660e01b815260040160206040518083038186803b1580156122f757600080fd5b505afa15801561230b573d6000803e3d6000fd5b505050506040513d601f19601f8201168201806040525081019061232f919061304e565b6123399190613abc565b6123439190613a8b565b8260020154111561244f5760018260050160016101000a81548160ff02191690831515021790555060008260050160069054906101000a900473ffffffffffffffffffffffffffffffffffffffff169050600060608273ffffffffffffffffffffffffffffffffffffffff168560050160029054906101000a900460e01b866007016040516020016123d6929190613506565b6040516020818303038152906040526040516123f2919061352e565b6000604051808303816000865af19150503d806000811461242f576040519150601f19603f3d011682016040523d82523d6000602084013e612434565b606091505b5080925081935050508161244757600080fd5b50505061246d565b60008260050160016101000a81548160ff0219169083151502179055505b600760009054906101000a900473ffffffffffffffffffffffffffffffffffffffff1673ffffffffffffffffffffffffffffffffffffffff166355f3aef0336040518263ffffffff1660e01b81526004016124c89190613545565b600060405180830381600087803b1580156124e257600080fd5b505af11580156124f6573d6000803e3d6000fd5b505050507fcf14d83e651a18657ecc54742c6e7324301a9896f75e7b952281867cad5947b2338360050160019054906101000a900460ff1660405161253c929190613560565b60405180910390a1505050565b600033905090565b600073ffffffffffffffffffffffffffffffffffffffff168373ffffffffffffffffffffffffffffffffffffffff1614156125c1576040517f08c379a00000000000000000000000000000000000000000000000000000000081526004016125b890613776565b60405180910390fd5b600073ffffffffffffffffffffffffffffffffffffffff168273ffffffffffffffffffffffffffffffffffffffff161415612631576040517f08c379a000000000000000000000000000000000000000000000000000000000815260040161262890613636565b60405180910390fd5b80600160008573ffffffffffffffffffffffffffffffffffffffff1673ffffffffffffffffffffffffffffffffffffffff16815260200190815260200160002060008473ffffffffffffffffffffffffffffffffffffffff1673ffffffffffffffffffffffffffffffffffffffff168152602001908152602001600020819055508173ffffffffffffffffffffffffffffffffffffffff168373ffffffffffffffffffffffffffffffffffffffff167f8c5be1e5ebec7d5bd14f71427d1e84f3dd0314c0f7b2291e5b200ac8c7c3b9258360405161270f9190613876565b60405180910390a3505050565b6127b482826040516024016127329291906135c6565b6040516020818303038152906040527fb60e72cc000000000000000000000000000000000000000000000000000000007bffffffffffffffffffffffffffffffffffffffffffffffffffffffff19166020820180517bffffffffffffffffffffffffffffffffffffffffffffffffffffffff8381831617835250505050612c13565b5050565b60006127c484846115a0565b90507fffffffffffffffffffffffffffffffffffffffffffffffffffffffffffffffff811461283e5781811015612830576040517f08c379a000000000000000000000000000000000000000000000000000000000815260040161282790613696565b60405180910390fd5b61283d8484848403612551565b5b50505050565b600073ffffffffffffffffffffffffffffffffffffffff168373ffffffffffffffffffffffffffffffffffffffff1614156128b4576040517f08c379a00000000000000000000000000000000000000000000000000000000081526004016128ab90613756565b60405180910390fd5b600073ffffffffffffffffffffffffffffffffffffffff168273ffffffffffffffffffffffffffffffffffffffff161415612924576040517f08c379a000000000000000000000000000000000000000000000000000000000815260040161291b906135f6565b60405180910390fd5b61292f838383612c3c565b60008060008573ffffffffffffffffffffffffffffffffffffffff1673ffffffffffffffffffffffffffffffffffffffff168152602001908152602001600020549050818110156129b5576040517f08c379a00000000000000000000000000000000000000000000000000000000081526004016129ac906136b6565b60405180910390fd5b8181036000808673ffffffffffffffffffffffffffffffffffffffff1673ffffffffffffffffffffffffffffffffffffffff16815260200190815260200160002081905550816000808573ffffffffffffffffffffffffffffffffffffffff1673ffffffffffffffffffffffffffffffffffffffff168152602001908152602001600020600082825401925050819055508273ffffffffffffffffffffffffffffffffffffffff168473ffffffffffffffffffffffffffffffffffffffff167fddf252ad1be2c89b69c2b068fc378daa952ba7f163c4a11628f55a4df523b3ef84604051612aa39190613876565b60405180910390a3612ab6848484612c41565b50505050565b600073ffffffffffffffffffffffffffffffffffffffff168273ffffffffffffffffffffffffffffffffffffffff161415612b2c576040517f08c379a0000000000000000000000000000000000000000000000000000000008152600401612b2390613856565b60405180910390fd5b612b3860008383612c3c565b8060026000828254612b4a9190613a35565b92505081905550806000808473ffffffffffffffffffffffffffffffffffffffff1673ffffffffffffffffffffffffffffffffffffffff168152602001908152602001600020600082825401925050819055508173ffffffffffffffffffffffffffffffffffffffff16600073ffffffffffffffffffffffffffffffffffffffff167fddf252ad1be2c89b69c2b068fc378daa952ba7f163c4a11628f55a4df523b3ef83604051612bfb9190613876565b60405180910390a3612c0f60008383612c41565b5050565b60008151905060006a636f6e736f6c652e6c6f679050602083016000808483855afa5050505050565b505050565b505050565b828054612c5290613c0d565b90600052602060002090601f016020900481019282612c745760008555612cbb565b82601f10612c8d57805160ff1916838001178555612cbb565b82800160010185558215612cbb579182015b82811115612cba578251825591602001919060010190612c9f565b5b509050612cc89190612ccc565b5090565b5b80821115612ce5576000816000905550600101612ccd565b5090565b6000612cfc612cf7846139ac565b613987565b905082815260208101848484011115612d1457600080fd5b612d1f848285613bcb565b509392505050565b600081359050612d3681614240565b92915050565b600081359050612d4b81614257565b92915050565b600081359050612d608161426e565b92915050565b600082601f830112612d7757600080fd5b8135612d87848260208601612ce9565b91505092915050565b600060a08284031215612da257600080fd5b612dac60a0613987565b90506000612dbc84828501612e2d565b6000830152506020612dd084828501612e2d565b6020830152506040612de484828501612e2d565b6040830152506060612df884828501612e2d565b6060830152506080612e0c84828501612e2d565b60808301525092915050565b600081359050612e2781614285565b92915050565b600081519050612e3c81614285565b92915050565b600060208284031215612e5457600080fd5b6000612e6284828501612d27565b91505092915050565b60008060408385031215612e7e57600080fd5b6000612e8c85828601612d27565b9250506020612e9d85828601612d27565b9150509250929050565b60008060008060808587031215612ebd57600080fd5b6000612ecb87828801612d27565b9450506020612edc87828801612d27565b9350506040612eed87828801612d27565b9250506060612efe87828801612d27565b91505092959194509250565b600080600060608486031215612f1f57600080fd5b6000612f2d86828701612d27565b9350506020612f3e86828701612d27565b9250506040612f4f86828701612e18565b9150509250925092565b600080600060608486031215612f6e57600080fd5b6000612f7c86828701612d27565b9350506020612f8d86828701612d51565b925050604084013567ffffffffffffffff811115612faa57600080fd5b612fb686828701612d66565b9150509250925092565b60008060408385031215612fd357600080fd5b6000612fe185828601612d27565b9250506020612ff285828601612e18565b9150509250929050565b600060a0828403121561300e57600080fd5b600061301c84828501612d90565b91505092915050565b60006020828403121561303757600080fd5b600061304584828501612e18565b91505092915050565b60006020828403121561306057600080fd5b600061306e84828501612e2d565b91505092915050565b60008060006060848603121561308c57600080fd5b600061309a86828701612e18565b93505060206130ab86828701612d3c565b92505060406130bc86828701612d3c565b9150509250925092565b6130cf81613b4a565b82525050565b6130de81613b5c565b82525050565b6130ed81613b68565b82525050565b6131046130ff82613b68565b613cb9565b82525050565b6000613115826139f2565b61311f8185613a08565b935061312f818560208601613bda565b61313881613d7f565b840191505092915050565b600061314e826139f2565b6131588185613a19565b9350613168818560208601613bda565b80840191505092915050565b6000815461318181613c0d565b61318b8186613a19565b945060018216600081146131a657600181146131b7576131ea565b60ff198316865281860193506131ea565b6131c0856139dd565b60005b838110156131e2578154818901526001820191506020810190506131c3565b838801955050505b50505092915050565b60006131fe826139fd565b6132088185613a24565b9350613218818560208601613bda565b61322181613d7f565b840191505092915050565b6000613239602383613a24565b915061324482613d90565b604082019050919050565b600061325c601d83613a24565b915061326782613ddf565b602082019050919050565b600061327f602283613a24565b915061328a82613e08565b604082019050919050565b60006132a2602183613a24565b91506132ad82613e57565b604082019050919050565b60006132c5601f83613a24565b91506132d082613ea6565b602082019050919050565b60006132e8601d83613a24565b91506132f382613ecf565b602082019050919050565b600061330b602683613a24565b915061331682613ef8565b604082019050919050565b600061332e601a83613a24565b915061333982613f47565b602082019050919050565b6000613351602383613a24565b915061335c82613f70565b604082019050919050565b6000613374601883613a24565b915061337f82613fbf565b602082019050919050565b6000613397603683613a24565b91506133a282613fe8565b604082019050919050565b60006133ba602583613a24565b91506133c582614037565b604082019050919050565b60006133dd602483613a24565b91506133e882614086565b604082019050919050565b6000613400601e83613a24565b915061340b826140d5565b602082019050919050565b6000613423601a83613a24565b915061342e826140fe565b602082019050919050565b6000613446601b83613a24565b915061345182614127565b602082019050919050565b6000613469602583613a24565b915061347482614150565b604082019050919050565b600061348c601383613a24565b91506134978261419f565b602082019050919050565b60006134af602f83613a24565b91506134ba826141c8565b604082019050919050565b60006134d2601f83613a24565b91506134dd82614217565b602082019050919050565b6134f181613bb4565b82525050565b61350081613bbe565b82525050565b600061351282856130f3565b6004820191506135228284613174565b91508190509392505050565b600061353a8284613143565b915081905092915050565b600060208201905061355a60008301846130c6565b92915050565b600060408201905061357560008301856130c6565b61358260208301846130d5565b9392505050565b600060208201905061359e60008301846130d5565b92915050565b600060208201905081810360008301526135be81846131f3565b905092915050565b600060408201905081810360008301526135e081856131f3565b90506135ef60208301846134e8565b9392505050565b6000602082019050818103600083015261360f8161322c565b9050919050565b6000602082019050818103600083015261362f8161324f565b9050919050565b6000602082019050818103600083015261364f81613272565b9050919050565b6000602082019050818103600083015261366f81613295565b9050919050565b6000602082019050818103600083015261368f816132b8565b9050919050565b600060208201905081810360008301526136af816132db565b9050919050565b600060208201905081810360008301526136cf816132fe565b9050919050565b600060208201905081810360008301526136ef81613321565b9050919050565b6000602082019050818103600083015261370f81613344565b9050919050565b6000602082019050818103600083015261372f81613367565b9050919050565b6000602082019050818103600083015261374f8161338a565b9050919050565b6000602082019050818103600083015261376f816133ad565b9050919050565b6000602082019050818103600083015261378f816133d0565b9050919050565b600060208201905081810360008301526137af816133f3565b9050919050565b600060208201905081810360008301526137cf81613416565b9050919050565b600060208201905081810360008301526137ef81613439565b9050919050565b6000602082019050818103600083015261380f8161345c565b9050919050565b6000602082019050818103600083015261382f8161347f565b9050919050565b6000602082019050818103600083015261384f816134a2565b9050919050565b6000602082019050818103600083015261386f816134c5565b9050919050565b600060208201905061388b60008301846134e8565b92915050565b60006040820190506138a660008301856134e8565b6138b360208301846134e8565b9392505050565b6000610160820190506138d0600083018e6134e8565b6138dd602083018d6134e8565b6138ea604083018c6134e8565b6138f7606083018b6134e8565b613904608083018a6134e8565b61391160a08301896130d5565b61391e60c08301886130d5565b61392b60e08301876130e4565b6139396101008301866130c6565b6139476101208301856130c6565b81810361014083015261395a818461310a565b90509c9b505050505050505050505050565b600060208201905061398160008301846134f7565b92915050565b60006139916139a2565b905061399d8282613c3f565b919050565b6000604051905090565b600067ffffffffffffffff8211156139c7576139c6613d50565b5b6139d082613d7f565b9050602081019050919050565b60008190508160005260206000209050919050565b600081519050919050565b600081519050919050565b600082825260208201905092915050565b600081905092915050565b600082825260208201905092915050565b6000613a4082613bb4565b9150613a4b83613bb4565b9250827fffffffffffffffffffffffffffffffffffffffffffffffffffffffffffffffff03821115613a8057613a7f613cc3565b5b828201905092915050565b6000613a9682613bb4565b9150613aa183613bb4565b925082613ab157613ab0613cf2565b5b828204905092915050565b6000613ac782613bb4565b9150613ad283613bb4565b9250817fffffffffffffffffffffffffffffffffffffffffffffffffffffffffffffffff0483118215151615613b0b57613b0a613cc3565b5b828202905092915050565b6000613b2182613bb4565b9150613b2c83613bb4565b925082821015613b3f57613b3e613cc3565b5b828203905092915050565b6000613b5582613b94565b9050919050565b60008115159050919050565b60007fffffffff0000000000000000000000000000000000000000000000000000000082169050919050565b600073ffffffffffffffffffffffffffffffffffffffff82169050919050565b6000819050919050565b600060ff82169050919050565b82818337600083830152505050565b60005b83811015613bf8578082015181840152602081019050613bdd565b83811115613c07576000848401525b50505050565b60006002820490506001821680613c2557607f821691505b60208210811415613c3957613c38613d21565b5b50919050565b613c4882613d7f565b810181811067ffffffffffffffff82111715613c6757613c66613d50565b5b80604052505050565b6000613c7b82613bb4565b91507fffffffffffffffffffffffffffffffffffffffffffffffffffffffffffffffff821415613cae57613cad613cc3565b5b600182019050919050565b6000819050919050565b7f4e487b7100000000000000000000000000000000000000000000000000000000600052601160045260246000fd5b7f4e487b7100000000000000000000000000000000000000000000000000000000600052601260045260246000fd5b7f4e487b7100000000000000000000000000000000000000000000000000000000600052602260045260246000fd5b7f4e487b7100000000000000000000000000000000000000000000000000000000600052604160045260246000fd5b6000601f19601f8301169050919050565b7f45524332303a207472616e7366657220746f20746865207a65726f206164647260008201527f6573730000000000000000000000000000000000000000000000000000000000602082015250565b7f566f74652068617320616c7265616479206265656e2074616c6c696564000000600082015250565b7f45524332303a20617070726f766520746f20746865207a65726f20616464726560008201527f7373000000000000000000000000000000000000000000000000000000000000602082015250565b7f446973707574652068617320616c7265616479206265656e206578656375746560008201527f6400000000000000000000000000000000000000000000000000000000000000602082015250565b7f54696d6520666f7220766f74696e6720686173206e6f7420656c617073656400600082015250565b7f45524332303a20696e73756666696369656e7420616c6c6f77616e6365000000600082015250565b7f45524332303a207472616e7366657220616d6f756e742065786365656473206260008201527f616c616e63650000000000000000000000000000000000000000000000000000602082015250565b7f6e756d626572206f6620646179732063616e6e6f742062652030000000000000600082015250565b7f7374616b65206d757374206265206174206c656173742033302064617973206f60008201527f6c64210000000000000000000000000000000000000000000000000000000000602082015250565b7f53656e6465722068617320616c726561647920766f7465640000000000000000600082015250565b7f75736572206e6565647320746f207374616b65206d6f726520746f6b656e732060008201527f696e20706f6f6c20746f20737461727420766f74652100000000000000000000602082015250565b7f45524332303a207472616e736665722066726f6d20746865207a65726f20616460008201527f6472657373000000000000000000000000000000000000000000000000000000602082015250565b7f45524332303a20617070726f76652066726f6d20746865207a65726f2061646460008201527f7265737300000000000000000000000000000000000000000000000000000000602082015250565b7f373525206f6620706f6f6c20686173206e6f7420766f74656420796574210000600082015250565b7f63616e206f6e6c792062652063616c6c6564206279207465616d000000000000600082015250565b7f63616e206f6e6c7920626520696e6974746564206279207465616d0000000000600082015250565b7f45524332303a2064656372656173656420616c6c6f77616e63652062656c6f7760008201527f207a65726f000000000000000000000000000000000000000000000000000000602082015250565b7f566f746520646f6573206e6f7420657869737400000000000000000000000000600082015250565b7f7374616b6520697320696e6163746976652c206861736e2774206265656e207560008201527f73656420696e2033206d6f6e7468730000000000000000000000000000000000602082015250565b7f45524332303a206d696e7420746f20746865207a65726f206164647265737300600082015250565b61424981613b4a565b811461425457600080fd5b50565b61426081613b5c565b811461426b57600080fd5b50565b61427781613b68565b811461428257600080fd5b50565b61428e81613bb4565b811461429957600080fd5b5056fea26469706673582212208583f659732df9c57a4ee43bd406e251deba313467caf89e14037b45c5f947de64736f6c63430008040033",
  "linkReferences": {},
  "deployedLinkReferences": {}
}