{
	"_format": "hh-sol-artifact-1",
	"contractName": "MockStabilityModule",
	"sourceName": "contracts/mocks/MockStabilityModule.sol",
	"abi": [
		{
			"inputs": [
				{
					"internalType": "address",
					"name": "_governance",
					"type": "address"
				}
			],
			"stateMutability": "nonpayable",
			"type": "constructor"
		},
		{
			"inputs": [
				{
					"internalType": "address",
					"name": "_staker",
					"type": "address"
				}
			],
			"name": "getGovernanceStake",
			"outputs": [
				{
					"components": [
						{
							"internalType": "uint256",
							"name": "amount",
							"type": "uint256"
						},
						{
							"internalType": "uint256",
							"name": "startTime",
							"type": "uint256"
						},
						{
							"internalType": "uint256",
							"name": "endTime",
							"type": "uint256"
						},
						{
							"internalType": "uint256",
							"name": "lastGovContractCall",
							"type": "uint256"
						}
					],
					"internalType": "struct MockStabilityModule.Stake",
					"name": "",
					"type": "tuple"
				}
			],
			"stateMutability": "view",
			"type": "function"
		},
		{
			"inputs": [],
			"name": "getTotalPoolAmount",
			"outputs": [
				{
					"internalType": "uint256",
					"name": "",
					"type": "uint256"
				}
			],
			"stateMutability": "view",
			"type": "function"
		},
		{
			"inputs": [
				{
					"internalType": "address",
					"name": "",
					"type": "address"
				}
			],
			"name": "governanceStakes",
			"outputs": [
				{
					"internalType": "uint256",
					"name": "amount",
					"type": "uint256"
				},
				{
					"internalType": "uint256",
					"name": "startTime",
					"type": "uint256"
				},
				{
					"internalType": "uint256",
					"name": "endTime",
					"type": "uint256"
				},
				{
					"internalType": "uint256",
					"name": "lastGovContractCall",
					"type": "uint256"
				}
			],
			"stateMutability": "view",
			"type": "function"
		},
		{
			"inputs": [
				{
					"internalType": "uint256",
					"name": "_amount",
					"type": "uint256"
				}
			],
			"name": "stake",
			"outputs": [],
			"stateMutability": "nonpayable",
			"type": "function"
		},
		{
			"inputs": [
				{
					"internalType": "address",
					"name": "_voter",
					"type": "address"
				}
			],
			"name": "updateLastGovContractCall",
			"outputs": [],
			"stateMutability": "nonpayable",
			"type": "function"
		},
		{
			"inputs": [
				{
					"internalType": "address",
					"name": "_collateralType",
					"type": "address"
				},
				{
					"internalType": "uint256",
					"name": "withdrawAmount",
					"type": "uint256"
				}
			],
			"name": "withdrawStake",
			"outputs": [],
			"stateMutability": "nonpayable",
			"type": "function"
		}
	],
	"bytecode": "0x608060405234801561001057600080fd5b50604051610fc5380380610fc58339818101604052810190610032919061008d565b806000806101000a81548173ffffffffffffffffffffffffffffffffffffffff021916908373ffffffffffffffffffffffffffffffffffffffff160217905550506100ff565b600081519050610087816100e8565b92915050565b60006020828403121561009f57600080fd5b60006100ad84828501610078565b91505092915050565b60006100c1826100c8565b9050919050565b600073ffffffffffffffffffffffffffffffffffffffff82169050919050565b6100f1816100b6565b81146100fc57600080fd5b50565b610eb78061010e6000396000f3fe608060405234801561001057600080fd5b50600436106100625760003560e01c80631054a8241461006757806355f3aef0146100975780638bf7dd30146100b3578063a694fc3a146100d1578063c1a0d1cd146100ed578063c606627214610120575b600080fd5b610081600480360381019061007c9190610940565b61013c565b60405161008e9190610ba3565b60405180910390f35b6100b160048036038101906100ac9190610940565b6101bd565b005b6100bb61025f565b6040516100c89190610bbe565b60405180910390f35b6100eb60048036038101906100e691906109ce565b610269565b005b61010760048036038101906101029190610940565b6103cf565b6040516101179493929190610bd9565b60405180910390f35b61013a60048036038101906101359190610969565b6103ff565b005b6101446108c4565b600260008373ffffffffffffffffffffffffffffffffffffffff1673ffffffffffffffffffffffffffffffffffffffff1681526020019081526020016000206040518060800160405290816000820154815260200160018201548152602001600282015481526020016003820154815250509050919050565b60008054906101000a900473ffffffffffffffffffffffffffffffffffffffff1673ffffffffffffffffffffffffffffffffffffffff163373ffffffffffffffffffffffffffffffffffffffff161461021557600080fd5b42600260008373ffffffffffffffffffffffffffffffffffffffff1673ffffffffffffffffffffffffffffffffffffffff1681526020019081526020016000206003018190555050565b6000600154905090565b6000600260003373ffffffffffffffffffffffffffffffffffffffff1673ffffffffffffffffffffffffffffffffffffffff16815260200190815260200160002090504281600101819055507fffffffffffffffffffffffffffffffffffffffffffffffffffffffffffffffff8160020181905550818160000160008282546102f29190610c2f565b9250508190555042816003018190555081600160008282546103149190610c2f565b9250508190555060008054906101000a900473ffffffffffffffffffffffffffffffffffffffff1673ffffffffffffffffffffffffffffffffffffffff166323b872dd3330856040518463ffffffff1660e01b815260040161037893929190610b03565b602060405180830381600087803b15801561039257600080fd5b505af11580156103a6573d6000803e3d6000fd5b505050506040513d601f19601f820116820180604052508101906103ca91906109a5565b505050565b60026020528060005260406000206000915090508060000154908060010154908060020154908060030154905084565b6000600260003373ffffffffffffffffffffffffffffffffffffffff1673ffffffffffffffffffffffffffffffffffffffff168152602001908152602001600020905062278d008160020154426104569190610d10565b1161046057600080fd5b818160000160008282546104749190610d10565b9250508190555042816002018190555081600160008282546104969190610d10565b925050819055506000806105616104b3846000015460015461077e565b60008054906101000a900473ffffffffffffffffffffffffffffffffffffffff1673ffffffffffffffffffffffffffffffffffffffff166370a08231306040518263ffffffff1660e01b815260040161050c9190610ae8565b60206040518083038186803b15801561052457600080fd5b505afa158015610538573d6000803e3d6000fd5b505050506040513d601f19601f8201168201806040525081019061055c91906109f7565b6107ba565b90506000610606610578856000015460015461077e565b8773ffffffffffffffffffffffffffffffffffffffff166370a08231306040518263ffffffff1660e01b81526004016105b19190610ae8565b60206040518083038186803b1580156105c957600080fd5b505afa1580156105dd573d6000803e3d6000fd5b505050506040513d601f19601f8201168201806040525081019061060191906109f7565b6107ba565b905081856106149190610c2f565b92506000846000018190555060008060009054906101000a900473ffffffffffffffffffffffffffffffffffffffff1673ffffffffffffffffffffffffffffffffffffffff1663a9059cbb33866040518363ffffffff1660e01b815260040161067e929190610b3a565b602060405180830381600087803b15801561069857600080fd5b505af11580156106ac573d6000803e3d6000fd5b505050506040513d601f19601f820116820180604052508101906106d091906109a5565b9050806106dc57600080fd5b8673ffffffffffffffffffffffffffffffffffffffff1663a9059cbb33846040518363ffffffff1660e01b8152600401610717929190610b3a565b602060405180830381600087803b15801561073157600080fd5b505af1158015610745573d6000803e3d6000fd5b505050506040513d601f19601f8201168201806040525081019061076991906109a5565b90508061077557600080fd5b50505050505050565b6000816107a861079685670de0b6b3a76400006107fe565b6002856107a39190610c85565b61086b565b6107b29190610c85565b905092915050565b6000670de0b6b3a76400006107ec6107d285856107fe565b6002670de0b6b3a76400006107e79190610c85565b61086b565b6107f69190610c85565b905092915050565b6000808214806108265750828283856108179190610cb6565b9250826108249190610c85565b145b610865576040517f08c379a000000000000000000000000000000000000000000000000000000000815260040161085c90610b63565b60405180910390fd5b92915050565b600082828461087a9190610c2f565b91508110156108be576040517f08c379a00000000000000000000000000000000000000000000000000000000081526004016108b590610b83565b60405180910390fd5b92915050565b6040518060800160405280600081526020016000815260200160008152602001600081525090565b6000813590506108fb81610e3c565b92915050565b60008151905061091081610e53565b92915050565b60008135905061092581610e6a565b92915050565b60008151905061093a81610e6a565b92915050565b60006020828403121561095257600080fd5b6000610960848285016108ec565b91505092915050565b6000806040838503121561097c57600080fd5b600061098a858286016108ec565b925050602061099b85828601610916565b9150509250929050565b6000602082840312156109b757600080fd5b60006109c584828501610901565b91505092915050565b6000602082840312156109e057600080fd5b60006109ee84828501610916565b91505092915050565b600060208284031215610a0957600080fd5b6000610a178482850161092b565b91505092915050565b610a2981610d44565b82525050565b6000610a3c601483610c1e565b9150610a4782610dea565b602082019050919050565b6000610a5f601483610c1e565b9150610a6a82610e13565b602082019050919050565b608082016000820151610a8b6000850182610aca565b506020820151610a9e6020850182610aca565b506040820151610ab16040850182610aca565b506060820151610ac46060850182610aca565b50505050565b610ad381610d82565b82525050565b610ae281610d82565b82525050565b6000602082019050610afd6000830184610a20565b92915050565b6000606082019050610b186000830186610a20565b610b256020830185610a20565b610b326040830184610ad9565b949350505050565b6000604082019050610b4f6000830185610a20565b610b5c6020830184610ad9565b9392505050565b60006020820190508181036000830152610b7c81610a2f565b9050919050565b60006020820190508181036000830152610b9c81610a52565b9050919050565b6000608082019050610bb86000830184610a75565b92915050565b6000602082019050610bd36000830184610ad9565b92915050565b6000608082019050610bee6000830187610ad9565b610bfb6020830186610ad9565b610c086040830185610ad9565b610c156060830184610ad9565b95945050505050565b600082825260208201905092915050565b6000610c3a82610d82565b9150610c4583610d82565b9250827fffffffffffffffffffffffffffffffffffffffffffffffffffffffffffffffff03821115610c7a57610c79610d8c565b5b828201905092915050565b6000610c9082610d82565b9150610c9b83610d82565b925082610cab57610caa610dbb565b5b828204905092915050565b6000610cc182610d82565b9150610ccc83610d82565b9250817fffffffffffffffffffffffffffffffffffffffffffffffffffffffffffffffff0483118215151615610d0557610d04610d8c565b5b828202905092915050565b6000610d1b82610d82565b9150610d2683610d82565b925082821015610d3957610d38610d8c565b5b828203905092915050565b6000610d4f82610d62565b9050919050565b60008115159050919050565b600073ffffffffffffffffffffffffffffffffffffffff82169050919050565b6000819050919050565b7f4e487b7100000000000000000000000000000000000000000000000000000000600052601160045260246000fd5b7f4e487b7100000000000000000000000000000000000000000000000000000000600052601260045260246000fd5b7f64732d6d6174682d6d756c2d6f766572666c6f77000000000000000000000000600082015250565b7f64732d6d6174682d6164642d6f766572666c6f77000000000000000000000000600082015250565b610e4581610d44565b8114610e5057600080fd5b50565b610e5c81610d56565b8114610e6757600080fd5b50565b610e7381610d82565b8114610e7e57600080fd5b5056fea264697066735822122041cdcd1b5fcbee6e636bf0c8ac76a3638eb5206bb8bfdb5b129c45820856e6a664736f6c63430008040033",
	"linkReferences": {},
	"deployedLinkReferences": {}
}