{
  "_format": "hh-sol-artifact-1",
  "contractName": "MockLending",
  "sourceName": "contracts/mocks/MockLending.sol",
  "abi": [
    {
      "inputs": [
        {
          "internalType": "address",
          "name": "_team",
          "type": "address"
        },
        {
          "internalType": "address",
          "name": "_governance",
          "type": "address"
        },
        {
          "internalType": "address",
          "name": "_chc",
          "type": "address"
        }
      ],
      "stateMutability": "nonpayable",
      "type": "constructor"
    },
    {
      "anonymous": false,
      "inputs": [
        {
          "indexed": false,
          "internalType": "address",
          "name": "user",
          "type": "address"
        },
        {
          "indexed": false,
          "internalType": "uint256",
          "name": "amount0",
          "type": "uint256"
        },
        {
          "indexed": false,
          "internalType": "uint256",
          "name": "amount1",
          "type": "uint256"
        }
      ],
      "name": "Borrow",
      "type": "event"
    },
    {
      "anonymous": false,
      "inputs": [
        {
          "indexed": false,
          "internalType": "address",
          "name": "user",
          "type": "address"
        },
        {
          "indexed": false,
          "internalType": "uint256",
          "name": "amount",
          "type": "uint256"
        }
      ],
      "name": "Lend",
      "type": "event"
    },
    {
      "anonymous": false,
      "inputs": [
        {
          "indexed": true,
          "internalType": "address",
          "name": "liquidator",
          "type": "address"
        },
        {
          "indexed": true,
          "internalType": "address",
          "name": "borrower",
          "type": "address"
        },
        {
          "indexed": false,
          "internalType": "uint256",
          "name": "amountLiquidated",
          "type": "uint256"
        }
      ],
      "name": "Liquidate",
      "type": "event"
    },
    {
      "anonymous": false,
      "inputs": [
        {
          "indexed": false,
          "internalType": "address",
          "name": "user",
          "type": "address"
        },
        {
          "indexed": false,
          "internalType": "uint256",
          "name": "amount",
          "type": "uint256"
        },
        {
          "indexed": false,
          "internalType": "uint256",
          "name": "collateralAmount",
          "type": "uint256"
        }
      ],
      "name": "Repay",
      "type": "event"
    },
    {
      "anonymous": false,
      "inputs": [
        {
          "indexed": false,
          "internalType": "address",
          "name": "user",
          "type": "address"
        },
        {
          "indexed": false,
          "internalType": "uint256",
          "name": "amount",
          "type": "uint256"
        }
      ],
      "name": "Withdraw",
      "type": "event"
    },
    {
      "inputs": [],
      "name": "LOWER_BOUND_INTEREST_RATE",
      "outputs": [
        {
          "internalType": "uint256",
          "name": "",
          "type": "uint256"
        }
      ],
      "stateMutability": "view",
      "type": "function"
    },
    {
      "inputs": [],
      "name": "TARGET_UTILIZATION_RATE",
      "outputs": [
        {
          "internalType": "uint256",
          "name": "",
          "type": "uint256"
        }
      ],
      "stateMutability": "view",
      "type": "function"
    },
    {
      "inputs": [],
      "name": "UPPER_BOUND_INTEREST_RATE",
      "outputs": [
        {
          "internalType": "uint256",
          "name": "",
          "type": "uint256"
        }
      ],
      "stateMutability": "view",
      "type": "function"
    },
    {
      "inputs": [
        {
          "internalType": "uint256",
          "name": "borrowAmount",
          "type": "uint256"
        },
        {
          "internalType": "address",
          "name": "_collateral",
          "type": "address"
        }
      ],
      "name": "borrow",
      "outputs": [],
      "stateMutability": "payable",
      "type": "function"
    },
    {
      "inputs": [
        {
          "internalType": "uint256",
          "name": "_amount",
          "type": "uint256"
        },
        {
          "internalType": "address",
          "name": "_collateral",
          "type": "address"
        }
      ],
      "name": "calculateCollateralAmount",
      "outputs": [
        {
          "internalType": "uint256",
          "name": "",
          "type": "uint256"
        }
      ],
      "stateMutability": "view",
      "type": "function"
    },
    {
      "inputs": [],
      "name": "calculateInterestRate",
      "outputs": [
        {
          "internalType": "uint256",
          "name": "",
          "type": "uint256"
        }
      ],
      "stateMutability": "view",
      "type": "function"
    },
    {
      "inputs": [],
      "name": "calculateUtilizationRate",
      "outputs": [
        {
          "internalType": "uint256",
          "name": "",
          "type": "uint256"
        }
      ],
      "stateMutability": "view",
      "type": "function"
    },
    {
      "inputs": [
        {
          "internalType": "uint256",
          "name": "",
          "type": "uint256"
        }
      ],
      "name": "dailyParticipants",
      "outputs": [
        {
          "internalType": "address",
          "name": "",
          "type": "address"
        }
      ],
      "stateMutability": "view",
      "type": "function"
    },
    {
      "inputs": [
        {
          "internalType": "address",
          "name": "",
          "type": "address"
        }
      ],
      "name": "dailyParticipation",
      "outputs": [
        {
          "internalType": "uint256",
          "name": "",
          "type": "uint256"
        }
      ],
      "stateMutability": "view",
      "type": "function"
    },
    {
      "inputs": [],
      "name": "distributeRewards",
      "outputs": [],
      "stateMutability": "nonpayable",
      "type": "function"
    },
    {
      "inputs": [
        {
          "internalType": "address",
          "name": "user",
          "type": "address"
        },
        {
          "internalType": "address",
          "name": "_collateral",
          "type": "address"
        }
      ],
      "name": "getUserPositions",
      "outputs": [
        {
          "components": [
            {
              "internalType": "uint256",
              "name": "borrowedAmount",
              "type": "uint256"
            },
            {
              "internalType": "uint256",
              "name": "lendAmount",
              "type": "uint256"
            }
          ],
          "internalType": "struct MockLending.Position",
          "name": "",
          "type": "tuple"
        }
      ],
      "stateMutability": "view",
      "type": "function"
    },
    {
      "inputs": [],
      "name": "getVolume",
      "outputs": [
        {
          "components": [
            {
              "internalType": "uint256",
              "name": "totalSupplied",
              "type": "uint256"
            },
            {
              "internalType": "uint256",
              "name": "totalBorrowed",
              "type": "uint256"
            }
          ],
          "internalType": "struct MockLending.Volume",
          "name": "",
          "type": "tuple"
        }
      ],
      "stateMutability": "view",
      "type": "function"
    },
    {
      "inputs": [],
      "name": "lastRewardDistribution",
      "outputs": [
        {
          "internalType": "uint256",
          "name": "",
          "type": "uint256"
        }
      ],
      "stateMutability": "view",
      "type": "function"
    },
    {
      "inputs": [
        {
          "internalType": "uint256",
          "name": "_amount",
          "type": "uint256"
        },
        {
          "internalType": "address",
          "name": "_collateral",
          "type": "address"
        }
      ],
      "name": "lend",
      "outputs": [],
      "stateMutability": "nonpayable",
      "type": "function"
    },
    {
      "inputs": [],
      "name": "rebalanceInterestRate",
      "outputs": [],
      "stateMutability": "nonpayable",
      "type": "function"
    },
    {
      "inputs": [
        {
          "internalType": "address",
          "name": "_collateral",
          "type": "address"
        },
        {
          "internalType": "uint256",
          "name": "amount",
          "type": "uint256"
        }
      ],
      "name": "repay",
      "outputs": [],
      "stateMutability": "nonpayable",
      "type": "function"
    },
    {
      "inputs": [],
      "name": "totalDailyExposure",
      "outputs": [
        {
          "internalType": "uint256",
          "name": "",
          "type": "uint256"
        }
      ],
      "stateMutability": "view",
      "type": "function"
    },
    {
      "inputs": [
        {
          "internalType": "address",
          "name": "",
          "type": "address"
        },
        {
          "internalType": "address",
          "name": "",
          "type": "address"
        }
      ],
      "name": "users",
      "outputs": [
        {
          "internalType": "uint256",
          "name": "borrowedAmount",
          "type": "uint256"
        },
        {
          "internalType": "uint256",
          "name": "lendAmount",
          "type": "uint256"
        }
      ],
      "stateMutability": "view",
      "type": "function"
    },
    {
      "inputs": [
        {
          "internalType": "uint256",
          "name": "_amount",
          "type": "uint256"
        },
        {
          "internalType": "address",
          "name": "_collateral",
          "type": "address"
        }
      ],
      "name": "withdraw",
      "outputs": [],
      "stateMutability": "nonpayable",
      "type": "function"
    },
    {
      "stateMutability": "payable",
      "type": "receive"
    }
  ],
  "bytecode": "0x60806040526706f05b59d3b200006003553480156200001d57600080fd5b5060405162002e0538038062002e05833981810160405281019062000043919062000125565b816000806101000a81548173ffffffffffffffffffffffffffffffffffffffff021916908373ffffffffffffffffffffffffffffffffffffffff16021790555080600160006101000a81548173ffffffffffffffffffffffffffffffffffffffff021916908373ffffffffffffffffffffffffffffffffffffffff16021790555082600260006101000a81548173ffffffffffffffffffffffffffffffffffffffff021916908373ffffffffffffffffffffffffffffffffffffffff160217905550505050620001c9565b6000815190506200011f81620001af565b92915050565b6000806000606084860312156200013b57600080fd5b60006200014b868287016200010e565b93505060206200015e868287016200010e565b925050604062000171868287016200010e565b9150509250925092565b600062000188826200018f565b9050919050565b600073ffffffffffffffffffffffffffffffffffffffff82169050919050565b620001ba816200017b565b8114620001c657600080fd5b50565b612c2c80620001d96000396000f3fe6080604052600436106101165760003560e01c8063567f37f2116100a0578063b0cd9cff11610064578063b0cd9cff1461039c578063b1884744146103c7578063bda736b8146103f0578063c67bbc241461041b578063d10747fe146104465761011d565b8063567f37f2146102c85780635e80536a146103055780636f4a2cd0146103435780639d226d0b1461035a578063a8b0d2fc146103855761011d565b806322867d78116100e757806322867d78146101f057806331254b07146102195780633676e44e146102565780633a082d8e146102815780634b3fd148146102ac5761011d565b8062f714ce14610122578062fc90801461014b57806303dac1ce146101885780631e1fd1c1146101b35761011d565b3661011d57005b600080fd5b34801561012e57600080fd5b5061014960048036038101906101449190612097565b610471565b005b34801561015757600080fd5b50610172600480360381019061016d9190612097565b6107e6565b60405161017f9190612568565b60405180910390f35b34801561019457600080fd5b5061019d610a6b565b6040516101aa9190612568565b60405180910390f35b3480156101bf57600080fd5b506101da60048036038101906101d59190611f2d565b610a71565b6040516101e79190612532565b60405180910390f35b3480156101fc57600080fd5b5061021760048036038101906102129190611f69565b610b1c565b005b34801561022557600080fd5b50610240600480360381019061023b9190611edb565b610ee7565b60405161024d9190612568565b60405180910390f35b34801561026257600080fd5b5061026b610eff565b6040516102789190612568565b60405180910390f35b34801561028d57600080fd5b50610296610f05565b6040516102a39190612568565b60405180910390f35b6102c660048036038101906102c19190612097565b610f80565b005b3480156102d457600080fd5b506102ef60048036038101906102ea9190612045565b611507565b6040516102fc919061235e565b60405180910390f35b34801561031157600080fd5b5061032c60048036038101906103279190611f2d565b611546565b60405161033a929190612583565b60405180910390f35b34801561034f57600080fd5b50610358611577565b005b34801561036657600080fd5b5061036f611861565b60405161037c9190612568565b60405180910390f35b34801561039157600080fd5b5061039a61186d565b005b3480156103a857600080fd5b506103b1611933565b6040516103be9190612568565b60405180910390f35b3480156103d357600080fd5b506103ee60048036038101906103e99190612097565b611939565b005b3480156103fc57600080fd5b50610405611c99565b6040516104129190612568565b60405180910390f35b34801561042757600080fd5b50610430611cf0565b60405161043d919061254d565b60405180910390f35b34801561045257600080fd5b5061045b611d1e565b6040516104689190612568565b60405180910390f35b600082116104b4576040517f08c379a00000000000000000000000000000000000000000000000000000000081526004016104ab90612432565b60405180910390fd5b81600860003373ffffffffffffffffffffffffffffffffffffffff1673ffffffffffffffffffffffffffffffffffffffff16815260200190815260200160002060008373ffffffffffffffffffffffffffffffffffffffff1673ffffffffffffffffffffffffffffffffffffffff168152602001908152602001600020600101541015610576576040517f08c379a000000000000000000000000000000000000000000000000000000000815260040161056d906124b2565b60405180910390fd5b81600160009054906101000a900473ffffffffffffffffffffffffffffffffffffffff1673ffffffffffffffffffffffffffffffffffffffff166370a08231306040518263ffffffff1660e01b81526004016105d2919061235e565b60206040518083038186803b1580156105ea57600080fd5b505afa1580156105fe573d6000803e3d6000fd5b505050506040513d601f19601f82011682018060405250810190610622919061206e565b1015610663576040517f08c379a000000000000000000000000000000000000000000000000000000000815260040161065a90612512565b60405180910390fd5b81600860003373ffffffffffffffffffffffffffffffffffffffff1673ffffffffffffffffffffffffffffffffffffffff16815260200190815260200160002060008373ffffffffffffffffffffffffffffffffffffffff1673ffffffffffffffffffffffffffffffffffffffff16815260200190815260200160002060010160008282546106f29190612825565b92505081905550600160009054906101000a900473ffffffffffffffffffffffffffffffffffffffff1673ffffffffffffffffffffffffffffffffffffffff1663a9059cbb33846040518363ffffffff1660e01b81526004016107569291906123b0565b602060405180830381600087803b15801561077057600080fd5b505af1158015610784573d6000803e3d6000fd5b505050506040513d601f19601f820116820180604052508101906107a89190611fa5565b507f884edad9ce6fa2440d8a54cc123490eb96d2768479d49ff9c7366125a942436433836040516107da9291906123b0565b60405180910390a15050565b600080600160009054906101000a900473ffffffffffffffffffffffffffffffffffffffff1673ffffffffffffffffffffffffffffffffffffffff16634a08e6886040518163ffffffff1660e01b815260040160206040518083038186803b15801561085157600080fd5b505afa158015610865573d6000803e3d6000fd5b505050506040513d601f19601f820116820180604052508101906108899190611f04565b73ffffffffffffffffffffffffffffffffffffffff1663feaf968c6040518163ffffffff1660e01b815260040160a06040518083038186803b1580156108ce57600080fd5b505afa1580156108e2573d6000803e3d6000fd5b505050506040513d601f19601f8201168201806040525081019061090691906120d3565b5050509150506000600160009054906101000a900473ffffffffffffffffffffffffffffffffffffffff1673ffffffffffffffffffffffffffffffffffffffff1663b050b672856040518263ffffffff1660e01b8152600401610969919061235e565b60a06040518083038186803b15801561098157600080fd5b505afa158015610995573d6000803e3d6000fd5b505050506040513d601f19601f820116820180604052508101906109b99190611fce565b94505050505060008173ffffffffffffffffffffffffffffffffffffffff1663feaf968c6040518163ffffffff1660e01b815260040160a06040518083038186803b158015610a0757600080fd5b505afa158015610a1b573d6000803e3d6000fd5b505050506040513d601f19601f82011682018060405250810190610a3f91906120d3565b5050509150506000610a5c8288610a5691906127cb565b85611d29565b90508094505050505092915050565b60045481565b610a79611dd6565b600860008473ffffffffffffffffffffffffffffffffffffffff1673ffffffffffffffffffffffffffffffffffffffff16815260200190815260200160002060008373ffffffffffffffffffffffffffffffffffffffff1673ffffffffffffffffffffffffffffffffffffffff16815260200190815260200160002060405180604001604052908160008201548152602001600182015481525050905092915050565b60008111610b5f576040517f08c379a0000000000000000000000000000000000000000000000000000000008152600401610b5690612452565b60405180910390fd5b6000670de0b6b3a7640000610b72610f05565b83610b7d91906127cb565b610b879190612629565b905060008183610b9791906125d3565b90506000610ba582866107e6565b90508360066001016000828254610bbc9190612825565b925050819055508360066000016000828254610bd891906125d3565b9250508190555083600860003373ffffffffffffffffffffffffffffffffffffffff1673ffffffffffffffffffffffffffffffffffffffff16815260200190815260200160002060008773ffffffffffffffffffffffffffffffffffffffff1673ffffffffffffffffffffffffffffffffffffffff1681526020019081526020016000206000016000828254610c6e9190612825565b92505081905550600160009054906101000a900473ffffffffffffffffffffffffffffffffffffffff1673ffffffffffffffffffffffffffffffffffffffff166323b872dd3330876040518463ffffffff1660e01b8152600401610cd493929190612379565b602060405180830381600087803b158015610cee57600080fd5b505af1158015610d02573d6000803e3d6000fd5b505050506040513d601f19601f82011682018060405250810190610d269190611fa5565b50600073ffffffffffffffffffffffffffffffffffffffff168573ffffffffffffffffffffffffffffffffffffffff161415610e0e5760003373ffffffffffffffffffffffffffffffffffffffff1682604051610d8290612349565b60006040518083038185875af1925050503d8060008114610dbf576040519150601f19603f3d011682016040523d82523d6000602084013e610dc4565b606091505b5050905080610e08576040517f08c379a0000000000000000000000000000000000000000000000000000000008152600401610dff906124f2565b60405180910390fd5b50610ea5565b8473ffffffffffffffffffffffffffffffffffffffff1663a9059cbb33836040518363ffffffff1660e01b8152600401610e499291906123b0565b602060405180830381600087803b158015610e6357600080fd5b505af1158015610e77573d6000803e3d6000fd5b505050506040513d601f19601f82011682018060405250810190610e9b9190611fa5565b610ea457600080fd5b5b7f77c6871227e5d2dec8dadd5354f78453203e22e669cd0ec4c19d9a8c5edb31d0338583604051610ed8939291906123d9565b60405180910390a15050505050565b60096020528060005260406000206000915090505481565b60035481565b600080610f10611c99565b90506000670de0b6b3a764000060028084610f2b91906126ad565b610f359190612629565b610f3f9190612629565b905066038d7ea4c68000811015610f615766038d7ea4c6800092505050610f7d565b600354811115610f775760035492505050610f7d565b80925050505b90565b60008211610fc3576040517f08c379a0000000000000000000000000000000000000000000000000000000008152600401610fba90612492565b60405180910390fd5b81600160009054906101000a900473ffffffffffffffffffffffffffffffffffffffff1673ffffffffffffffffffffffffffffffffffffffff166370a08231306040518263ffffffff1660e01b815260040161101f919061235e565b60206040518083038186803b15801561103757600080fd5b505afa15801561104b573d6000803e3d6000fd5b505050506040513d601f19601f8201168201806040525081019061106f919061206e565b10156110b0576040517f08c379a00000000000000000000000000000000000000000000000000000000081526004016110a790612512565b60405180910390fd5b6000670de0b6b3a76400006110c3610f05565b846110ce91906127cb565b6110d89190612629565b9050600081846110e891906125d3565b905060006110f682856107e6565b9050846006600001600082825461110d9190612825565b92505081905550846006600101600082825461112991906125d3565b9250508190555084600860003373ffffffffffffffffffffffffffffffffffffffff1673ffffffffffffffffffffffffffffffffffffffff16815260200190815260200160002060008673ffffffffffffffffffffffffffffffffffffffff1673ffffffffffffffffffffffffffffffffffffffff16815260200190815260200160002060000160008282546111bf91906125d3565b9250508190555084600960003373ffffffffffffffffffffffffffffffffffffffff1673ffffffffffffffffffffffffffffffffffffffff168152602001908152602001600020600082825461121591906125d3565b92505081905550846004600082825461122e91906125d3565b92505081905550600073ffffffffffffffffffffffffffffffffffffffff168473ffffffffffffffffffffffffffffffffffffffff16146113085760008473ffffffffffffffffffffffffffffffffffffffff166323b872dd3330856040518463ffffffff1660e01b81526004016112a893929190612379565b602060405180830381600087803b1580156112c257600080fd5b505af11580156112d6573d6000803e3d6000fd5b505050506040513d601f19601f820116820180604052508101906112fa9190611fa5565b90508061130657600080fd5b505b600a60003373ffffffffffffffffffffffffffffffffffffffff1673ffffffffffffffffffffffffffffffffffffffff16815260200190815260200160002060009054906101000a900460ff166113bd57600b339080600181540180825580915050600190039060005260206000200160009091909190916101000a81548173ffffffffffffffffffffffffffffffffffffffff021916908373ffffffffffffffffffffffffffffffffffffffff1602179055505b6001600a60003373ffffffffffffffffffffffffffffffffffffffff1673ffffffffffffffffffffffffffffffffffffffff16815260200190815260200160002060006101000a81548160ff021916908315150217905550600160009054906101000a900473ffffffffffffffffffffffffffffffffffffffff1673ffffffffffffffffffffffffffffffffffffffff1663a9059cbb33876040518363ffffffff1660e01b81526004016114729291906123b0565b602060405180830381600087803b15801561148c57600080fd5b505af11580156114a0573d6000803e3d6000fd5b505050506040513d601f19601f820116820180604052508101906114c49190611fa5565b507fe1979fe4c35e0cef342fef5668e2c8e7a7e9f5d5d1ca8fee0ac6c427fa4153af3386836040516114f8939291906123d9565b60405180910390a15050505050565b600b818154811061151757600080fd5b906000526020600020016000915054906101000a900473ffffffffffffffffffffffffffffffffffffffff1681565b6008602052816000526040600020602052806000526040600020600091509150508060000154908060010154905082565b600260009054906101000a900473ffffffffffffffffffffffffffffffffffffffff1673ffffffffffffffffffffffffffffffffffffffff163373ffffffffffffffffffffffffffffffffffffffff1614611607576040517f08c379a00000000000000000000000000000000000000000000000000000000081526004016115fe906124d2565b60405180910390fd5b6201518060055461161891906125d3565b42101561165a576040517f08c379a000000000000000000000000000000000000000000000000000000000815260040161165190612472565b60405180910390fd5b60005b600b80549050811015611849576000600b82815481106116a6577f4e487b7100000000000000000000000000000000000000000000000000000000600052603260045260246000fd5b9060005260206000200160009054906101000a900473ffffffffffffffffffffffffffffffffffffffff1690506000600454600960003373ffffffffffffffffffffffffffffffffffffffff1673ffffffffffffffffffffffffffffffffffffffff16815260200190815260200160002054693f870857a3e0e380000061172d91906127cb565b6117379190612629565b905060008054906101000a900473ffffffffffffffffffffffffffffffffffffffff1673ffffffffffffffffffffffffffffffffffffffff1663a9059cbb83836040518363ffffffff1660e01b81526004016117949291906123b0565b602060405180830381600087803b1580156117ae57600080fd5b505af11580156117c2573d6000803e3d6000fd5b505050506040513d601f19601f820116820180604052508101906117e69190611fa5565b506000600960003373ffffffffffffffffffffffffffffffffffffffff1673ffffffffffffffffffffffffffffffffffffffff1681526020019081526020016000208190555060006004819055505050808061184190612901565b91505061165d565b5042600581905550600b600061185f9190611df0565b565b670b1a2bc2ec50000081565b600260009054906101000a900473ffffffffffffffffffffffffffffffffffffffff1673ffffffffffffffffffffffffffffffffffffffff163373ffffffffffffffffffffffffffffffffffffffff16146118fd576040517f08c379a00000000000000000000000000000000000000000000000000000000081526004016118f4906124d2565b60405180910390fd5b6000611907611c99565b905080670b1a2bc2ec50000061191d9190612629565b60035461192a91906127cb565b60038190555050565b60055481565b6000821161197c576040517f08c379a000000000000000000000000000000000000000000000000000000000815260040161197390612432565b60405180910390fd5b816006600001600082825461199191906125d3565b9250508190555081600860003373ffffffffffffffffffffffffffffffffffffffff1673ffffffffffffffffffffffffffffffffffffffff16815260200190815260200160002060008373ffffffffffffffffffffffffffffffffffffffff1673ffffffffffffffffffffffffffffffffffffffff1681526020019081526020016000206001016000828254611a2791906125d3565b9250508190555081600960003373ffffffffffffffffffffffffffffffffffffffff1673ffffffffffffffffffffffffffffffffffffffff1681526020019081526020016000206000828254611a7d91906125d3565b925050819055508160046000828254611a9691906125d3565b92505081905550600a60003373ffffffffffffffffffffffffffffffffffffffff1673ffffffffffffffffffffffffffffffffffffffff16815260200190815260200160002060009054906101000a900460ff16611b5257600b339080600181540180825580915050600190039060005260206000200160009091909190916101000a81548173ffffffffffffffffffffffffffffffffffffffff021916908373ffffffffffffffffffffffffffffffffffffffff1602179055505b6001600a60003373ffffffffffffffffffffffffffffffffffffffff1673ffffffffffffffffffffffffffffffffffffffff16815260200190815260200160002060006101000a81548160ff021916908315150217905550600160009054906101000a900473ffffffffffffffffffffffffffffffffffffffff1673ffffffffffffffffffffffffffffffffffffffff166323b872dd3330856040518463ffffffff1660e01b8152600401611c0993929190612379565b602060405180830381600087803b158015611c2357600080fd5b505af1158015611c37573d6000803e3d6000fd5b505050506040513d601f19601f82011682018060405250810190611c5b9190611fa5565b507f41b123d2493c7b2067b8b7f49cf71532523d83ead11494d793531ece1fd4d0463383604051611c8d9291906123b0565b60405180910390a15050565b6000806006600001541480611cb357506000600660000154145b15611cc15760009050611ced565b600660000154670de0b6b3a7640000600660010154611ce091906127cb565b611cea9190612629565b90505b90565b611cf8611e11565b600660405180604001604052908160008201548152602001600182015481525050905090565b66038d7ea4c6800081565b6000611d6b83836040518060400160405280601a81526020017f536166654d6174683a206469766973696f6e206279207a65726f000000000000815250611d73565b905092915050565b60008083118290611dba576040517f08c379a0000000000000000000000000000000000000000000000000000000008152600401611db19190612410565b60405180910390fd5b5060008385611dc99190612629565b9050809150509392505050565b604051806040016040528060008152602001600081525090565b5080546000825590600052602060002090810190611e0e9190611e2b565b50565b604051806040016040528060008152602001600081525090565b5b80821115611e44576000816000905550600101611e2c565b5090565b600081359050611e5781612b83565b92915050565b600081519050611e6c81612b83565b92915050565b600081519050611e8181612b9a565b92915050565b600081519050611e9681612bb1565b92915050565b600081359050611eab81612bc8565b92915050565b600081519050611ec081612bc8565b92915050565b600081519050611ed581612bdf565b92915050565b600060208284031215611eed57600080fd5b6000611efb84828501611e48565b91505092915050565b600060208284031215611f1657600080fd5b6000611f2484828501611e5d565b91505092915050565b60008060408385031215611f4057600080fd5b6000611f4e85828601611e48565b9250506020611f5f85828601611e48565b9150509250929050565b60008060408385031215611f7c57600080fd5b6000611f8a85828601611e48565b9250506020611f9b85828601611e9c565b9150509250929050565b600060208284031215611fb757600080fd5b6000611fc584828501611e72565b91505092915050565b600080600080600060a08688031215611fe657600080fd5b6000611ff488828901611e72565b955050602061200588828901611eb1565b945050604061201688828901611eb1565b935050606061202788828901611eb1565b925050608061203888828901611e5d565b9150509295509295909350565b60006020828403121561205757600080fd5b600061206584828501611e9c565b91505092915050565b60006020828403121561208057600080fd5b600061208e84828501611eb1565b91505092915050565b600080604083850312156120aa57600080fd5b60006120b885828601611e9c565b92505060206120c985828601611e48565b9150509250929050565b600080600080600060a086880312156120eb57600080fd5b60006120f988828901611ec6565b955050602061210a88828901611e87565b945050604061211b88828901611eb1565b935050606061212c88828901611eb1565b925050608061213d88828901611ec6565b9150509295509295909350565b61215381612859565b82525050565b6000612164826125ac565b61216e81856125c2565b935061217e8185602086016128ce565b612187816129a8565b840191505092915050565b600061219f600e836125c2565b91506121aa826129c6565b602082019050919050565b60006121c2601d836125c2565b91506121cd826129ef565b602082019050919050565b60006121e56019836125c2565b91506121f082612a18565b602082019050919050565b60006122086021836125c2565b915061221382612a41565b604082019050919050565b600061222b6013836125c2565b915061223682612a90565b602082019050919050565b600061224e6000836125b7565b915061225982612ab9565b600082019050919050565b60006122716024836125c2565b915061227c82612abc565b604082019050919050565b6000612294602b836125c2565b915061229f82612b0b565b604082019050919050565b60006122b76015836125c2565b91506122c282612b5a565b602082019050919050565b6040820160008201516122e3600085018261232b565b5060208201516122f6602085018261232b565b50505050565b604082016000820151612312600085018261232b565b506020820151612325602085018261232b565b50505050565b612334816128a1565b82525050565b612343816128a1565b82525050565b600061235482612241565b9150819050919050565b6000602082019050612373600083018461214a565b92915050565b600060608201905061238e600083018661214a565b61239b602083018561214a565b6123a8604083018461233a565b949350505050565b60006040820190506123c5600083018561214a565b6123d2602083018461233a565b9392505050565b60006060820190506123ee600083018661214a565b6123fb602083018561233a565b612408604083018461233a565b949350505050565b6000602082019050818103600083015261242a8184612159565b905092915050565b6000602082019050818103600083015261244b81612192565b9050919050565b6000602082019050818103600083015261246b816121b5565b9050919050565b6000602082019050818103600083015261248b816121d8565b9050919050565b600060208201905081810360008301526124ab816121fb565b9050919050565b600060208201905081810360008301526124cb8161221e565b9050919050565b600060208201905081810360008301526124eb81612264565b9050919050565b6000602082019050818103600083015261250b81612287565b9050919050565b6000602082019050818103600083015261252b816122aa565b9050919050565b600060408201905061254760008301846122cd565b92915050565b600060408201905061256260008301846122fc565b92915050565b600060208201905061257d600083018461233a565b92915050565b6000604082019050612598600083018561233a565b6125a5602083018461233a565b9392505050565b600081519050919050565b600081905092915050565b600082825260208201905092915050565b60006125de826128a1565b91506125e9836128a1565b9250827fffffffffffffffffffffffffffffffffffffffffffffffffffffffffffffffff0382111561261e5761261d61294a565b5b828201905092915050565b6000612634826128a1565b915061263f836128a1565b92508261264f5761264e612979565b5b828204905092915050565b6000808291508390505b60018511156126a4578086048111156126805761267f61294a565b5b600185161561268f5780820291505b808102905061269d856129b9565b9450612664565b94509492505050565b60006126b8826128a1565b91506126c3836128ab565b92506126f07fffffffffffffffffffffffffffffffffffffffffffffffffffffffffffffffff84846126f8565b905092915050565b60008261270857600190506127c4565b8161271657600090506127c4565b816001811461272c576002811461273657612765565b60019150506127c4565b60ff8411156127485761274761294a565b5b8360020a91508482111561275f5761275e61294a565b5b506127c4565b5060208310610133831016604e8410600b841016171561279a5782820a9050838111156127955761279461294a565b5b6127c4565b6127a7848484600161265a565b925090508184048111156127be576127bd61294a565b5b81810290505b9392505050565b60006127d6826128a1565b91506127e1836128a1565b9250817fffffffffffffffffffffffffffffffffffffffffffffffffffffffffffffffff048311821515161561281a5761281961294a565b5b828202905092915050565b6000612830826128a1565b915061283b836128a1565b92508282101561284e5761284d61294a565b5b828203905092915050565b600061286482612881565b9050919050565b60008115159050919050565b6000819050919050565b600073ffffffffffffffffffffffffffffffffffffffff82169050919050565b6000819050919050565b600060ff82169050919050565b600069ffffffffffffffffffff82169050919050565b60005b838110156128ec5780820151818401526020810190506128d1565b838111156128fb576000848401525b50505050565b600061290c826128a1565b91507fffffffffffffffffffffffffffffffffffffffffffffffffffffffffffffffff82141561293f5761293e61294a565b5b600182019050919050565b7f4e487b7100000000000000000000000000000000000000000000000000000000600052601160045260246000fd5b7f4e487b7100000000000000000000000000000000000000000000000000000000600052601260045260246000fd5b6000601f19601f8301169050919050565b60008160011c9050919050565b7f496e76616c696420616d6f756e74000000000000000000000000000000000000600082015250565b7f416d6f756e74206d7573742062652067726561746572207468616e2030000000600082015250565b7f74696d6520696e74657276616c206e6f74207265616368656400000000000000600082015250565b7f436f6c6c61746572616c206d7573742062652067726561746572207468616e2060008201527f3000000000000000000000000000000000000000000000000000000000000000602082015250565b7f616d6f756e742065786365656473206c656e6400000000000000000000000000600082015250565b50565b7f63616e206f6e6c792062652063616c6c65642062792043475420676f7665726e60008201527f616e636500000000000000000000000000000000000000000000000000000000602082015250565b7f72657475726e206f6620657468657220636f6c6c61746572616c20776173207560008201527f6e7375636365737366756c000000000000000000000000000000000000000000602082015250565b7f496e73756666696369656e74202062616c616e63650000000000000000000000600082015250565b612b8c81612859565b8114612b9757600080fd5b50565b612ba38161286b565b8114612bae57600080fd5b50565b612bba81612877565b8114612bc557600080fd5b50565b612bd1816128a1565b8114612bdc57600080fd5b50565b612be8816128b8565b8114612bf357600080fd5b5056fea2646970667358221220e7c3bdc7465cf3dc44bc56367ef963f168cb5d1182d2284d44298441d227b79364736f6c63430008040033",
  "linkReferences": {},
  "deployedLinkReferences": {}
}