{
    "_format": "hh-sol-artifact-1",
    "contractName": "MockOracle",
    "sourceName": "contracts/mocks/MockOracle.sol",
    "abi": [
        {
            "inputs": [],
            "name": "_answer",
            "outputs": [
                {
                    "internalType": "int256",
                    "name": "",
                    "type": "int256"
                }
            ],
            "stateMutability": "view",
            "type": "function"
        },
        {
            "inputs": [],
            "name": "latestRoundData",
            "outputs": [
                {
                    "internalType": "uint80",
                    "name": "roundId",
                    "type": "uint80"
                },
                {
                    "internalType": "int256",
                    "name": "answer",
                    "type": "int256"
                },
                {
                    "internalType": "uint256",
                    "name": "startedAt",
                    "type": "uint256"
                },
                {
                    "internalType": "uint256",
                    "name": "updatedAt",
                    "type": "uint256"
                },
                {
                    "internalType": "uint80",
                    "name": "answeredInRound",
                    "type": "uint80"
                }
            ],
            "stateMutability": "view",
            "type": "function"
        },
        {
            "inputs": [
                {
                    "internalType": "int256",
                    "name": "value",
                    "type": "int256"
                }
            ],
            "name": "setValue",
            "outputs": [],
            "stateMutability": "nonpayable",
            "type": "function"
        }
    ],
    "bytecode": "0x608060405234801561001057600080fd5b50610219806100206000396000f3fe608060405234801561001057600080fd5b50600436106100415760003560e01c80635093dc7d14610046578063cb40372214610062578063feaf968c14610080575b600080fd5b610060600480360381019061005b91906100de565b6100a2565b005b61006a6100ac565b6040516100779190610134565b60405180910390f35b6100886100b2565b60405161009995949392919061014f565b60405180910390f35b8060008190555050565b60005481565b600080600080600084600054945094509091929394565b6000813590506100d8816101cc565b92915050565b6000602082840312156100f057600080fd5b60006100fe848285016100c9565b91505092915050565b610110816101a2565b82525050565b61011f816101ac565b82525050565b61012e816101b6565b82525050565b60006020820190506101496000830184610107565b92915050565b600060a0820190506101646000830188610125565b6101716020830187610107565b61017e6040830186610116565b61018b6060830185610116565b6101986080830184610125565b9695505050505050565b6000819050919050565b6000819050919050565b600069ffffffffffffffffffff82169050919050565b6101d5816101a2565b81146101e057600080fd5b5056fea264697066735822122069dad2996b838baea1671a555fdfd3eaec78f3329e4df7d5fba60343c7d4785264736f6c63430008040033",
    "linkReferences": {},
    "deployedLinkReferences": {}
}