{
  "_format": "hh-sol-artifact-1",
  "contractName": "Swap",
  "sourceName": "contracts/Swap.sol",
  "abi": [
    {
      "inputs": [
        {
          "internalType": "address",
          "name": "_feeToSetter",
          "type": "address"
        }
      ],
      "stateMutability": "nonpayable",
      "type": "constructor"
    },
    {
      "anonymous": false,
      "inputs": [
        {
          "indexed": true,
          "internalType": "address",
          "name": "token0",
          "type": "address"
        },
        {
          "indexed": true,
          "internalType": "address",
          "name": "token1",
          "type": "address"
        },
        {
          "indexed": false,
          "internalType": "address",
          "name": "pair",
          "type": "address"
        },
        {
          "indexed": false,
          "internalType": "uint256",
          "name": "",
          "type": "uint256"
        }
      ],
      "name": "PairCreated",
      "type": "event"
    },
    {
      "inputs": [
        {
          "internalType": "uint256",
          "name": "",
          "type": "uint256"
        }
      ],
      "name": "allPairs",
      "outputs": [
        {
          "internalType": "address",
          "name": "",
          "type": "address"
        }
      ],
      "stateMutability": "view",
      "type": "function"
    },
    {
      "inputs": [],
      "name": "allPairsLength",
      "outputs": [
        {
          "internalType": "uint256",
          "name": "",
          "type": "uint256"
        }
      ],
      "stateMutability": "view",
      "type": "function"
    },
    {
      "inputs": [
        {
          "internalType": "address",
          "name": "tokenA",
          "type": "address"
        },
        {
          "internalType": "address",
          "name": "tokenB",
          "type": "address"
        }
      ],
      "name": "createPair",
      "outputs": [
        {
          "internalType": "address",
          "name": "pair",
          "type": "address"
        }
      ],
      "stateMutability": "nonpayable",
      "type": "function"
    },
    {
      "inputs": [],
      "name": "feeTo",
      "outputs": [
        {
          "internalType": "address",
          "name": "",
          "type": "address"
        }
      ],
      "stateMutability": "view",
      "type": "function"
    },
    {
      "inputs": [],
      "name": "feeToSetter",
      "outputs": [
        {
          "internalType": "address",
          "name": "",
          "type": "address"
        }
      ],
      "stateMutability": "view",
      "type": "function"
    },
    {
      "inputs": [
        {
          "internalType": "address",
          "name": "",
          "type": "address"
        },
        {
          "internalType": "address",
          "name": "",
          "type": "address"
        }
      ],
      "name": "getPair",
      "outputs": [
        {
          "internalType": "address",
          "name": "",
          "type": "address"
        }
      ],
      "stateMutability": "view",
      "type": "function"
    },
    {
      "inputs": [
        {
          "internalType": "address",
          "name": "_feeTo",
          "type": "address"
        }
      ],
      "name": "setFeeTo",
      "outputs": [],
      "stateMutability": "nonpayable",
      "type": "function"
    },
    {
      "inputs": [
        {
          "internalType": "address",
          "name": "_feeToSetter",
          "type": "address"
        }
      ],
      "name": "setFeeToSetter",
      "outputs": [],
      "stateMutability": "nonpayable",
      "type": "function"
    },
    {
      "inputs": [
        {
          "internalType": "address",
          "name": "sender",
          "type": "address"
        },
        {
          "internalType": "uint256",
          "name": "amount0",
          "type": "uint256"
        },
        {
          "internalType": "uint256",
          "name": "amount1",
          "type": "uint256"
        },
        {
          "internalType": "bytes",
          "name": "data",
          "type": "bytes"
        }
      ],
      "name": "uniswapV2Call",
      "outputs": [
        {
          "internalType": "bool",
          "name": "",
          "type": "bool"
        }
      ],
      "stateMutability": "nonpayable",
      "type": "function"
    }
  ],
  "bytecode": "0x60806040523480156200001157600080fd5b5060405162005cf238038062005cf2833981810160405281019062000037919062000096565b80600160006101000a81548173ffffffffffffffffffffffffffffffffffffffff021916908373ffffffffffffffffffffffffffffffffffffffff1602179055505062000110565b6000815190506200009081620000f6565b92915050565b600060208284031215620000a957600080fd5b6000620000b9848285016200007f565b91505092915050565b6000620000cf82620000d6565b9050919050565b600073ffffffffffffffffffffffffffffffffffffffff82169050919050565b6200010181620000c2565b81146200010d57600080fd5b50565b615bd280620001206000396000f3fe60806040523480156200001157600080fd5b5060043610620000a05760003560e01c8063574f2ba3116200006f578063574f2ba31462000155578063a2e74af61462000177578063c9c653961462000197578063e6a4390514620001cd578063f46901ed146200020357620000a0565b8063017e7e5814620000a5578063094b741514620000c757806310d1e85c14620000e95780631e3dd18b146200011f575b600080fd5b620000af62000223565b604051620000be919062000f85565b60405180910390f35b620000d162000247565b604051620000e0919062000f85565b60405180910390f35b62000107600480360381019062000101919062000dba565b6200026d565b60405162000116919062000ffc565b60405180910390f35b6200013d600480360381019062000137919062000e3f565b6200048b565b6040516200014c919062000f85565b60405180910390f35b6200015f620004cb565b6040516200016e9190620010a1565b60405180910390f35b6200019560048036038101906200018f919062000d21565b620004d8565b005b620001b56004803603810190620001af919062000d79565b6200058f565b604051620001c4919062000f85565b60405180910390f35b620001eb6004803603810190620001e5919062000d79565b62000b64565b604051620001fa919062000f85565b60405180910390f35b6200022160048036038101906200021b919062000d21565b62000ba6565b005b60008054906101000a900473ffffffffffffffffffffffffffffffffffffffff1681565b600160009054906101000a900473ffffffffffffffffffffffffffffffffffffffff1681565b6000808573ffffffffffffffffffffffffffffffffffffffff16630dfe16816040518163ffffffff1660e01b8152600401602060405180830381600087803b158015620002b957600080fd5b505af1158015620002ce573d6000803e3d6000fd5b505050506040513d601f19601f82011682018060405250810190620002f4919062000d4d565b905060008673ffffffffffffffffffffffffffffffffffffffff1663d21220a76040518163ffffffff1660e01b8152600401602060405180830381600087803b1580156200034157600080fd5b505af115801562000356573d6000803e3d6000fd5b505050506040513d601f19601f820116820180604052508101906200037c919062000d4d565b9050600260008373ffffffffffffffffffffffffffffffffffffffff1673ffffffffffffffffffffffffffffffffffffffff16815260200190815260200160002060008273ffffffffffffffffffffffffffffffffffffffff1673ffffffffffffffffffffffffffffffffffffffff16815260200190815260200160002060009054906101000a900473ffffffffffffffffffffffffffffffffffffffff1673ffffffffffffffffffffffffffffffffffffffff168773ffffffffffffffffffffffffffffffffffffffff16146200047d577f4e487b7100000000000000000000000000000000000000000000000000000000600052600160045260246000fd5b600192505050949350505050565b600381815481106200049c57600080fd5b906000526020600020016000915054906101000a900473ffffffffffffffffffffffffffffffffffffffff1681565b6000600380549050905090565b808073ffffffffffffffffffffffffffffffffffffffff163373ffffffffffffffffffffffffffffffffffffffff16146200054a576040517f08c379a000000000000000000000000000000000000000000000000000000000815260040162000541906200103b565b60405180910390fd5b81600160006101000a81548173ffffffffffffffffffffffffffffffffffffffff021916908373ffffffffffffffffffffffffffffffffffffffff1602179055505050565b6000338073ffffffffffffffffffffffffffffffffffffffff163373ffffffffffffffffffffffffffffffffffffffff161462000603576040517f08c379a0000000000000000000000000000000000000000000000000000000008152600401620005fa906200103b565b60405180910390fd5b8273ffffffffffffffffffffffffffffffffffffffff168473ffffffffffffffffffffffffffffffffffffffff16141562000675576040517f08c379a00000000000000000000000000000000000000000000000000000000081526004016200066c906200105d565b60405180910390fd5b6000808473ffffffffffffffffffffffffffffffffffffffff168673ffffffffffffffffffffffffffffffffffffffff1610620006b4578486620006b7565b85855b91509150600073ffffffffffffffffffffffffffffffffffffffff168273ffffffffffffffffffffffffffffffffffffffff1614156200072e576040517f08c379a000000000000000000000000000000000000000000000000000000000815260040162000725906200107f565b60405180910390fd5b600073ffffffffffffffffffffffffffffffffffffffff16600260008473ffffffffffffffffffffffffffffffffffffffff1673ffffffffffffffffffffffffffffffffffffffff16815260200190815260200160002060008373ffffffffffffffffffffffffffffffffffffffff1673ffffffffffffffffffffffffffffffffffffffff16815260200190815260200160002060009054906101000a900473ffffffffffffffffffffffffffffffffffffffff1673ffffffffffffffffffffffffffffffffffffffff16146200083c576040517f08c379a0000000000000000000000000000000000000000000000000000000008152600401620008339062001019565b60405180910390fd5b600060405180602001620008509062000c5c565b6020820181038252601f19601f820116604052509050600083836040516020016200087d92919062000f55565b604051602081830303815290604052805190602001209050808251602084016000f595508573ffffffffffffffffffffffffffffffffffffffff1663485cc95585856040518363ffffffff1660e01b8152600401620008de92919062000fa2565b600060405180830381600087803b158015620008f957600080fd5b505af11580156200090e573d6000803e3d6000fd5b5050505085600260008673ffffffffffffffffffffffffffffffffffffffff1673ffffffffffffffffffffffffffffffffffffffff16815260200190815260200160002060008573ffffffffffffffffffffffffffffffffffffffff1673ffffffffffffffffffffffffffffffffffffffff16815260200190815260200160002060006101000a81548173ffffffffffffffffffffffffffffffffffffffff021916908373ffffffffffffffffffffffffffffffffffffffff16021790555085600260008573ffffffffffffffffffffffffffffffffffffffff1673ffffffffffffffffffffffffffffffffffffffff16815260200190815260200160002060008673ffffffffffffffffffffffffffffffffffffffff1673ffffffffffffffffffffffffffffffffffffffff16815260200190815260200160002060006101000a81548173ffffffffffffffffffffffffffffffffffffffff021916908373ffffffffffffffffffffffffffffffffffffffff1602179055506003869080600181540180825580915050600190039060005260206000200160009091909190916101000a81548173ffffffffffffffffffffffffffffffffffffffff021916908373ffffffffffffffffffffffffffffffffffffffff1602179055508273ffffffffffffffffffffffffffffffffffffffff168473ffffffffffffffffffffffffffffffffffffffff167f0d3648bd0f6ba80134a33ba9275ac585d9d315f0ad8355cddefde31afa28d0e98860038054905060405162000b5192919062000fcf565b60405180910390a3505050505092915050565b60026020528160005260406000206020528060005260406000206000915091509054906101000a900473ffffffffffffffffffffffffffffffffffffffff1681565b808073ffffffffffffffffffffffffffffffffffffffff163373ffffffffffffffffffffffffffffffffffffffff161462000c18576040517f08c379a000000000000000000000000000000000000000000000000000000000815260040162000c0f906200103b565b60405180910390fd5b816000806101000a81548173ffffffffffffffffffffffffffffffffffffffff021916908373ffffffffffffffffffffffffffffffffffffffff1602179055505050565b614892806200130b83390190565b600062000c8162000c7b84620010e7565b620010be565b90508281526020810184848401111562000c9a57600080fd5b62000ca784828562001178565b509392505050565b60008135905062000cc081620012d6565b92915050565b60008151905062000cd781620012d6565b92915050565b600082601f83011262000cef57600080fd5b813562000d0184826020860162000c6a565b91505092915050565b60008135905062000d1b81620012f0565b92915050565b60006020828403121562000d3457600080fd5b600062000d448482850162000caf565b91505092915050565b60006020828403121562000d6057600080fd5b600062000d708482850162000cc6565b91505092915050565b6000806040838503121562000d8d57600080fd5b600062000d9d8582860162000caf565b925050602062000db08582860162000caf565b9150509250929050565b6000806000806080858703121562000dd157600080fd5b600062000de18782880162000caf565b945050602062000df48782880162000d0a565b935050604062000e078782880162000d0a565b925050606085013567ffffffffffffffff81111562000e2557600080fd5b62000e338782880162000cdd565b91505092959194509250565b60006020828403121562000e5257600080fd5b600062000e628482850162000d0a565b91505092915050565b62000e76816200112e565b82525050565b62000e9162000e8b826200112e565b620011bd565b82525050565b62000ea28162001142565b82525050565b600062000eb76011836200111d565b915062000ec48262001232565b602082019050919050565b600062000ede600f836200111d565b915062000eeb826200125b565b602082019050919050565b600062000f056019836200111d565b915062000f128262001284565b602082019050919050565b600062000f2c6012836200111d565b915062000f3982620012ad565b602082019050919050565b62000f4f816200116e565b82525050565b600062000f63828562000e7c565b60148201915062000f75828462000e7c565b6014820191508190509392505050565b600060208201905062000f9c600083018462000e6b565b92915050565b600060408201905062000fb9600083018562000e6b565b62000fc8602083018462000e6b565b9392505050565b600060408201905062000fe6600083018562000e6b565b62000ff5602083018462000f44565b9392505050565b600060208201905062001013600083018462000e97565b92915050565b60006020820190508181036000830152620010348162000ea8565b9050919050565b60006020820190508181036000830152620010568162000ecf565b9050919050565b60006020820190508181036000830152620010788162000ef6565b9050919050565b600060208201905081810360008301526200109a8162000f1d565b9050919050565b6000602082019050620010b8600083018462000f44565b92915050565b6000620010ca620010dd565b9050620010d8828262001187565b919050565b6000604051905090565b600067ffffffffffffffff821115620011055762001104620011e5565b5b620011108262001214565b9050602081019050919050565b600082825260208201905092915050565b60006200113b826200114e565b9050919050565b60008115159050919050565b600073ffffffffffffffffffffffffffffffffffffffff82169050919050565b6000819050919050565b82818337600083830152505050565b620011928262001214565b810181811067ffffffffffffffff82111715620011b457620011b3620011e5565b5b80604052505050565b6000620011ca82620011d1565b9050919050565b6000620011de8262001225565b9050919050565b7f4e487b7100000000000000000000000000000000000000000000000000000000600052604160045260246000fd5b6000601f19601f8301169050919050565b60008160601b9050919050565b7f537761703a20504149525f455849535453000000000000000000000000000000600082015250565b7f537761703a20464f5242494444454e0000000000000000000000000000000000600082015250565b7f537761703a204944454e544943414c5f41444452455353455300000000000000600082015250565b7f537761703a205a45524f5f414444524553530000000000000000000000000000600082015250565b620012e1816200112e565b8114620012ed57600080fd5b50565b620012fb816200116e565b81146200130757600080fd5b5056fe60806040526001600c553480156200001657600080fd5b5060004690507f8b73c3c69bb8fe3d512ecc4cf759cc79239f7b179b0ffacaa9a75d522b39400f6040518060400160405280600a81526020017f556e697377617020563200000000000000000000000000000000000000000000815250805190602001206040518060400160405280600181526020017f3100000000000000000000000000000000000000000000000000000000000000815250805190602001208330604051602001620000cf95949392919062000166565b604051602081830303815290604052805190602001206003819055505033600560006101000a81548173ffffffffffffffffffffffffffffffffffffffff021916908373ffffffffffffffffffffffffffffffffffffffff1602179055506200020b565b6200013e81620001c3565b82525050565b6200014f81620001d7565b82525050565b620001608162000201565b82525050565b600060a0820190506200017d600083018862000144565b6200018c602083018762000144565b6200019b604083018662000144565b620001aa606083018562000155565b620001b9608083018462000133565b9695505050505050565b6000620001d082620001e1565b9050919050565b6000819050919050565b600073ffffffffffffffffffffffffffffffffffffffff82169050919050565b6000819050919050565b614677806200021b6000396000f3fe608060405234801561001057600080fd5b50600436106101a95760003560e01c80636a627842116100f9578063ba9a7a5611610097578063d21220a711610071578063d21220a7146104db578063d505accf146104f9578063dd62ed3e14610515578063fff6cae914610545576101a9565b8063ba9a7a5614610483578063bc25cf77146104a1578063c45a0155146104bd576101a9565b80637ecebe00116100d35780637ecebe00146103d457806389afcb441461040457806395d89b4114610435578063a9059cbb14610453576101a9565b80636a6278421461035657806370a08231146103865780637464fc3d146103b6576101a9565b806323b872dd116101665780633644e515116101405780633644e515146102e0578063485cc955146102fe5780635909c0d51461031a5780635a3d549314610338576101a9565b806323b872dd1461027457806330adf81f146102a4578063313ce567146102c2576101a9565b8063022c0d9f146101ae57806306fdde03146101ca5780630902f1ac146101e8578063095ea7b3146102085780630dfe16811461023857806318160ddd14610256575b600080fd5b6101c860048036038101906101c391906135ab565b61054f565b005b6101d2610fc4565b6040516101df9190613b0b565b60405180910390f35b6101f0610ffd565b6040516101ff93929190613d99565b60405180910390f35b610222600480360381019061021d919061351d565b61105a565b60405161022f9190613a2f565b60405180910390f35b610240611071565b60405161024d919061399d565b60405180910390f35b61025e611097565b60405161026b9190613dd0565b60405180910390f35b61028e60048036038101906102899190613430565b61109d565b60405161029b9190613a2f565b60405180910390f35b6102ac611261565b6040516102b99190613a4a565b60405180910390f35b6102ca611288565b6040516102d79190613e59565b60405180910390f35b6102e861128d565b6040516102f59190613a4a565b60405180910390f35b610318600480360381019061031391906133f4565b611293565b005b61032261141d565b60405161032f9190613dd0565b60405180910390f35b610340611423565b60405161034d9190613dd0565b60405180910390f35b610370600480360381019061036b91906133a2565b611429565b60405161037d9190613dd0565b60405180910390f35b6103a0600480360381019061039b91906133a2565b611800565b6040516103ad9190613dd0565b60405180910390f35b6103be611818565b6040516103cb9190613dd0565b60405180910390f35b6103ee60048036038101906103e991906133a2565b61181e565b6040516103fb9190613dd0565b60405180910390f35b61041e600480360381019061041991906133a2565b611836565b60405161042c929190613deb565b60405180910390f35b61043d611d1c565b60405161044a9190613b0b565b60405180910390f35b61046d6004803603810190610468919061351d565b611d55565b60405161047a9190613a2f565b60405180910390f35b61048b611d6c565b6040516104989190613dd0565b60405180910390f35b6104bb60048036038101906104b691906133a2565b611d72565b005b6104c5611fbc565b6040516104d2919061399d565b60405180910390f35b6104e3611fe2565b6040516104f0919061399d565b60405180910390f35b610513600480360381019061050e919061347f565b612008565b005b61052f600480360381019061052a91906133f4565b612230565b60405161053c9190613dd0565b60405180910390f35b61054d612255565b005b6001600c5414610594576040517f08c379a000000000000000000000000000000000000000000000000000000000815260040161058b90613cb0565b60405180910390fd5b6000600c8190555060008511806105ab5750600084115b6105ea576040517f08c379a00000000000000000000000000000000000000000000000000000000081526004016105e190613bd0565b60405180910390fd5b6000806105f5610ffd565b50915091506106b66040518060400160405280600881526020017f7265736572766530000000000000000000000000000000000000000000000000815250670de0b6b3a7640000846106479190613f18565b6dffffffffffffffffffffffffffff166040518060400160405280600b81526020017f2072657365727665203120000000000000000000000000000000000000000000815250670de0b6b3a7640000856106a19190613f18565b6dffffffffffffffffffffffffffff16612444565b6107526040518060400160405280600a81526020017f616d6f756e74306f757400000000000000000000000000000000000000000000815250670de0b6b3a7640000896107039190613f7a565b6040518060400160405280600a81526020017f616d6f756e74316f757400000000000000000000000000000000000000000000815250670de0b6b3a76400008a61074d9190613f7a565b612444565b816dffffffffffffffffffffffffffff16871080156107805750806dffffffffffffffffffffffffffff1686105b6107bf576040517f08c379a00000000000000000000000000000000000000000000000000000000081526004016107b690613c70565b60405180910390fd5b6000806000600660009054906101000a900473ffffffffffffffffffffffffffffffffffffffff1690506000600760009054906101000a900473ffffffffffffffffffffffffffffffffffffffff1690508173ffffffffffffffffffffffffffffffffffffffff168973ffffffffffffffffffffffffffffffffffffffff161415801561087857508073ffffffffffffffffffffffffffffffffffffffff168973ffffffffffffffffffffffffffffffffffffffff1614155b6108b7576040517f08c379a00000000000000000000000000000000000000000000000000000000081526004016108ae90613c30565b60405180910390fd5b6109096040518060400160405280600b81526020017f616d6f756e7431206f7574000000000000000000000000000000000000000000815250670de0b6b3a76400008c6109049190613f7a565b6124e6565b61095b6040518060400160405280600b81526020017f616d6f756e7430206f7574000000000000000000000000000000000000000000815250670de0b6b3a76400008d6109569190613f7a565b6124e6565b6109bd6040518060400160405280600a81526020017f72657365727665303a2000000000000000000000000000000000000000000000815250670de0b6b3a7640000886109a89190613f18565b6dffffffffffffffffffffffffffff166124e6565b610a1f6040518060400160405280600a81526020017f72657365727665313a2000000000000000000000000000000000000000000000815250670de0b6b3a764000087610a0a9190613f18565b6dffffffffffffffffffffffffffff166124e6565b60008b1115610a3457610a33828a8d612582565b5b60008a1115610a4957610a48818a8c612582565b5b6000888890501115610ac9578873ffffffffffffffffffffffffffffffffffffffff166310d1e85c338d8d8c8c6040518663ffffffff1660e01b8152600401610a969594939291906139e1565b600060405180830381600087803b158015610ab057600080fd5b505af1158015610ac4573d6000803e3d6000fd5b505050505b8173ffffffffffffffffffffffffffffffffffffffff166370a08231306040518263ffffffff1660e01b8152600401610b02919061399d565b60206040518083038186803b158015610b1a57600080fd5b505afa158015610b2e573d6000803e3d6000fd5b505050506040513d601f19601f82011682018060405250810190610b529190613582565b93508073ffffffffffffffffffffffffffffffffffffffff166370a08231306040518263ffffffff1660e01b8152600401610b8d919061399d565b60206040518083038186803b158015610ba557600080fd5b505afa158015610bb9573d6000803e3d6000fd5b505050506040513d601f19601f82011682018060405250810190610bdd9190613582565b9250610c316040518060400160405280600881526020017f62616c616e636530000000000000000000000000000000000000000000000000815250670de0b6b3a764000086610c2c9190613f7a565b6124e6565b610c836040518060400160405280600881526020017f62616c616e636531000000000000000000000000000000000000000000000000815250670de0b6b3a764000085610c7e9190613f7a565b6124e6565b5050600089856dffffffffffffffffffffffffffff16610ca3919061405b565b8311610cb0576000610cd8565b89856dffffffffffffffffffffffffffff16610ccc919061405b565b83610cd7919061405b565b5b9050600089856dffffffffffffffffffffffffffff16610cf8919061405b565b8311610d05576000610d2d565b89856dffffffffffffffffffffffffffff16610d21919061405b565b83610d2c919061405b565b5b9050610d9c6040518060400160405280600481526020017f6469666600000000000000000000000000000000000000000000000000000000815250670de0b6b3a76400008d896dffffffffffffffffffffffffffff16610d8d919061405b565b610d979190613f7a565b6124e6565b610dee6040518060400160405280600981526020017f616d6f756e7430496e0000000000000000000000000000000000000000000000815250670de0b6b3a764000084610de99190613f7a565b6124e6565b6000821180610dfd5750600081115b610e3c576040517f08c379a0000000000000000000000000000000000000000000000000000000008152600401610e3390613bf0565b60405180910390fd5b6000610e78610e5560038561271590919063ffffffff16565b610e6a6103e88861271590919063ffffffff16565b61278290919063ffffffff16565b90506000610eb6610e9360038561271590919063ffffffff16565b610ea86103e88861271590919063ffffffff16565b61278290919063ffffffff16565b9050610ef76040518060400160405280601181526020017f62616c616365302061646a757374656420000000000000000000000000000000815250836124e6565b610f366040518060400160405280601281526020017f62616c616e6365312061646a7573746564200000000000000000000000000000815250826124e6565b5050610f44848488886127db565b8873ffffffffffffffffffffffffffffffffffffffff163373ffffffffffffffffffffffffffffffffffffffff167fd78ad95fa46c994b6551d0da85fc275fe613ce37657fb8d5e3d130840159d82284848f8f604051610fa79493929190613e14565b60405180910390a35050505050506001600c819055505050505050565b6040518060400160405280600a81526020017f556e69737761702056320000000000000000000000000000000000000000000081525081565b6000806000600860009054906101000a90046dffffffffffffffffffffffffffff1692506008600e9054906101000a90046dffffffffffffffffffffffffffff1691506008601c9054906101000a900463ffffffff169050909192565b6000611067338484612acf565b6001905092915050565b600660009054906101000a900473ffffffffffffffffffffffffffffffffffffffff1681565b60005481565b60007fffffffffffffffffffffffffffffffffffffffffffffffffffffffffffffffff600260008673ffffffffffffffffffffffffffffffffffffffff1673ffffffffffffffffffffffffffffffffffffffff16815260200190815260200160002060003373ffffffffffffffffffffffffffffffffffffffff1673ffffffffffffffffffffffffffffffffffffffff168152602001908152602001600020541461124b5781600260008673ffffffffffffffffffffffffffffffffffffffff1673ffffffffffffffffffffffffffffffffffffffff16815260200190815260200160002060003373ffffffffffffffffffffffffffffffffffffffff1673ffffffffffffffffffffffffffffffffffffffff168152602001908152602001600020546111ca919061405b565b600260008673ffffffffffffffffffffffffffffffffffffffff1673ffffffffffffffffffffffffffffffffffffffff16815260200190815260200160002060003373ffffffffffffffffffffffffffffffffffffffff1673ffffffffffffffffffffffffffffffffffffffff168152602001908152602001600020819055505b611256848484612bba565b600190509392505050565b7f6e71edae12b1b97f4d1f60370fef10105fa2faae0126114a169c64845d6126c960001b81565b601281565b60035481565b600560009054906101000a900473ffffffffffffffffffffffffffffffffffffffff1673ffffffffffffffffffffffffffffffffffffffff163373ffffffffffffffffffffffffffffffffffffffff1614611323576040517f08c379a000000000000000000000000000000000000000000000000000000000815260040161131a90613d10565b60405180910390fd5b600073ffffffffffffffffffffffffffffffffffffffff168273ffffffffffffffffffffffffffffffffffffffff16141561135d57600080fd5b600073ffffffffffffffffffffffffffffffffffffffff168173ffffffffffffffffffffffffffffffffffffffff16141561139757600080fd5b81600660006101000a81548173ffffffffffffffffffffffffffffffffffffffff021916908373ffffffffffffffffffffffffffffffffffffffff16021790555080600760006101000a81548173ffffffffffffffffffffffffffffffffffffffff021916908373ffffffffffffffffffffffffffffffffffffffff1602179055505050565b60095481565b600a5481565b60006001600c5414611470576040517f08c379a000000000000000000000000000000000000000000000000000000000815260040161146790613cb0565b60405180910390fd5b6000600c81905550600080611483610ffd565b50915091506000600660009054906101000a900473ffffffffffffffffffffffffffffffffffffffff1673ffffffffffffffffffffffffffffffffffffffff166370a08231306040518263ffffffff1660e01b81526004016114e5919061399d565b60206040518083038186803b1580156114fd57600080fd5b505afa158015611511573d6000803e3d6000fd5b505050506040513d601f19601f820116820180604052508101906115359190613582565b90506000600760009054906101000a900473ffffffffffffffffffffffffffffffffffffffff1673ffffffffffffffffffffffffffffffffffffffff166370a08231306040518263ffffffff1660e01b8152600401611594919061399d565b60206040518083038186803b1580156115ac57600080fd5b505afa1580156115c0573d6000803e3d6000fd5b505050506040513d601f19601f820116820180604052508101906115e49190613582565b90506000846dffffffffffffffffffffffffffff1683611604919061405b565b90506000846dffffffffffffffffffffffffffff1683611624919061405b565b905060006116328787612d40565b90506000805490506000811415611678576103e861165a84866116559190614001565b612efd565b611664919061405b565b985061167360006103e8612f77565b6116d1565b6116ce886dffffffffffffffffffffffffffff1682866116989190614001565b6116a29190613f7a565b886dffffffffffffffffffffffffffff1683866116bf9190614001565b6116c99190613f7a565b613083565b98505b60008911611714576040517f08c379a000000000000000000000000000000000000000000000000000000000815260040161170b90613cf0565b60405180910390fd5b61171e8a8a612f77565b61172a86868a8a6127db565b811561179b576008600e9054906101000a90046dffffffffffffffffffffffffffff166dffffffffffffffffffffffffffff16600860009054906101000a90046dffffffffffffffffffffffffffff166dffffffffffffffffffffffffffff166117949190614001565b600b819055505b3373ffffffffffffffffffffffffffffffffffffffff167f4c209b5fc8ad50758f13e2e1088ba56a560dff690a1c6fef26394f4c03821c4f85856040516117e3929190613deb565b60405180910390a250505050505050506001600c81905550919050565b60016020528060005260406000206000915090505481565b600b5481565b60046020528060005260406000206000915090505481565b6000806001600c541461187e576040517f08c379a000000000000000000000000000000000000000000000000000000000815260040161187590613cb0565b60405180910390fd5b6000600c81905550600080611891610ffd565b50915091506000600660009054906101000a900473ffffffffffffffffffffffffffffffffffffffff1690506000600760009054906101000a900473ffffffffffffffffffffffffffffffffffffffff16905060008273ffffffffffffffffffffffffffffffffffffffff166370a08231306040518263ffffffff1660e01b815260040161191f919061399d565b60206040518083038186803b15801561193757600080fd5b505afa15801561194b573d6000803e3d6000fd5b505050506040513d601f19601f8201168201806040525081019061196f9190613582565b905060008273ffffffffffffffffffffffffffffffffffffffff166370a08231306040518263ffffffff1660e01b81526004016119ac919061399d565b60206040518083038186803b1580156119c457600080fd5b505afa1580156119d8573d6000803e3d6000fd5b505050506040513d601f19601f820116820180604052508101906119fc9190613582565b90506000600160003073ffffffffffffffffffffffffffffffffffffffff1673ffffffffffffffffffffffffffffffffffffffff1681526020019081526020016000205490506000611a4e8888612d40565b905060008054905080611a6a868561271590919063ffffffff16565b611a749190613f7a565b9a5080611a8a858561271590919063ffffffff16565b611a949190613f7a565b995060008b118015611aa6575060008a115b611ae5576040517f08c379a0000000000000000000000000000000000000000000000000000000008152600401611adc90613cd0565b60405180910390fd5b611aef308461309d565b611afa878d8d612582565b611b05868d8c612582565b8673ffffffffffffffffffffffffffffffffffffffff166370a08231306040518263ffffffff1660e01b8152600401611b3e919061399d565b60206040518083038186803b158015611b5657600080fd5b505afa158015611b6a573d6000803e3d6000fd5b505050506040513d601f19601f82011682018060405250810190611b8e9190613582565b94508573ffffffffffffffffffffffffffffffffffffffff166370a08231306040518263ffffffff1660e01b8152600401611bc9919061399d565b60206040518083038186803b158015611be157600080fd5b505afa158015611bf5573d6000803e3d6000fd5b505050506040513d601f19601f82011682018060405250810190611c199190613582565b9350611c2785858b8b6127db565b8115611c9f57611c986008600e9054906101000a90046dffffffffffffffffffffffffffff166dffffffffffffffffffffffffffff16600860009054906101000a90046dffffffffffffffffffffffffffff166dffffffffffffffffffffffffffff1661271590919063ffffffff16565b600b819055505b8b73ffffffffffffffffffffffffffffffffffffffff163373ffffffffffffffffffffffffffffffffffffffff167fdccd412f0b1252819cb1fd330b93224ca42612892bb3f4f789976e6d819364968d8d604051611cfe929190613deb565b60405180910390a35050505050505050506001600c81905550915091565b6040518060400160405280600681526020017f554e492d5632000000000000000000000000000000000000000000000000000081525081565b6000611d62338484612bba565b6001905092915050565b6103e881565b6001600c5414611db7576040517f08c379a0000000000000000000000000000000000000000000000000000000008152600401611dae90613cb0565b60405180910390fd5b6000600c819055506000600660009054906101000a900473ffffffffffffffffffffffffffffffffffffffff1690506000600760009054906101000a900473ffffffffffffffffffffffffffffffffffffffff169050611ede8284611ed9600860009054906101000a90046dffffffffffffffffffffffffffff166dffffffffffffffffffffffffffff168673ffffffffffffffffffffffffffffffffffffffff166370a08231306040518263ffffffff1660e01b8152600401611e7b919061399d565b60206040518083038186803b158015611e9357600080fd5b505afa158015611ea7573d6000803e3d6000fd5b505050506040513d601f19601f82011682018060405250810190611ecb9190613582565b61278290919063ffffffff16565b612582565b611faf8184611faa6008600e9054906101000a90046dffffffffffffffffffffffffffff166dffffffffffffffffffffffffffff168573ffffffffffffffffffffffffffffffffffffffff166370a08231306040518263ffffffff1660e01b8152600401611f4c919061399d565b60206040518083038186803b158015611f6457600080fd5b505afa158015611f78573d6000803e3d6000fd5b505050506040513d601f19601f82011682018060405250810190611f9c9190613582565b61278290919063ffffffff16565b612582565b50506001600c8190555050565b600560009054906101000a900473ffffffffffffffffffffffffffffffffffffffff1681565b600760009054906101000a900473ffffffffffffffffffffffffffffffffffffffff1681565b4284101561204b576040517f08c379a000000000000000000000000000000000000000000000000000000000815260040161204290613c90565b60405180910390fd5b60006003547f6e71edae12b1b97f4d1f60370fef10105fa2faae0126114a169c64845d6126c960001b898989600460008e73ffffffffffffffffffffffffffffffffffffffff1673ffffffffffffffffffffffffffffffffffffffff16815260200190815260200160002060008154809291906120c7906141b6565b919050558a6040516020016120e196959493929190613a65565b60405160208183030381529060405280519060200120604051602001612108929190613966565b6040516020818303038152906040528051906020012090506000600182868686604051600081526020016040526040516121459493929190613ac6565b6020604051602081039080840390855afa158015612167573d6000803e3d6000fd5b505050602060405103519050600073ffffffffffffffffffffffffffffffffffffffff168173ffffffffffffffffffffffffffffffffffffffff16141580156121db57508873ffffffffffffffffffffffffffffffffffffffff168173ffffffffffffffffffffffffffffffffffffffff16145b61221a576040517f08c379a000000000000000000000000000000000000000000000000000000000815260040161221190613c50565b60405180910390fd5b612225898989612acf565b505050505050505050565b6002602052816000526040600020602052806000526040600020600091509150505481565b6001600c541461229a576040517f08c379a000000000000000000000000000000000000000000000000000000000815260040161229190613cb0565b60405180910390fd5b6000600c8190555061243a600660009054906101000a900473ffffffffffffffffffffffffffffffffffffffff1673ffffffffffffffffffffffffffffffffffffffff166370a08231306040518263ffffffff1660e01b8152600401612300919061399d565b60206040518083038186803b15801561231857600080fd5b505afa15801561232c573d6000803e3d6000fd5b505050506040513d601f19601f820116820180604052508101906123509190613582565b600760009054906101000a900473ffffffffffffffffffffffffffffffffffffffff1673ffffffffffffffffffffffffffffffffffffffff166370a08231306040518263ffffffff1660e01b81526004016123ab919061399d565b60206040518083038186803b1580156123c357600080fd5b505afa1580156123d7573d6000803e3d6000fd5b505050506040513d601f19601f820116820180604052508101906123fb9190613582565b600860009054906101000a90046dffffffffffffffffffffffffffff166008600e9054906101000a90046dffffffffffffffffffffffffffff166127db565b6001600c81905550565b6124e08484848460405160240161245e9493929190613b5d565b6040516020818303038152906040527fc67ea9d1000000000000000000000000000000000000000000000000000000007bffffffffffffffffffffffffffffffffffffffffffffffffffffffff19166020820180517bffffffffffffffffffffffffffffffffffffffffffffffffffffffff83818316178352505050506131a9565b50505050565b61257e82826040516024016124fc929190613b2d565b6040516020818303038152906040527fb60e72cc000000000000000000000000000000000000000000000000000000007bffffffffffffffffffffffffffffffffffffffffffffffffffffffff19166020820180517bffffffffffffffffffffffffffffffffffffffffffffffffffffffff83818316178352505050506131a9565b5050565b6000808473ffffffffffffffffffffffffffffffffffffffff166040518060400160405280601981526020017f7472616e7366657228616464726573732c75696e7432353629000000000000008152508051906020012085856040516024016125ec9291906139b8565b604051602081830303815290604052907bffffffffffffffffffffffffffffffffffffffffffffffffffffffff19166020820180517bffffffffffffffffffffffffffffffffffffffffffffffffffffffff8381831617835250505050604051612656919061394f565b6000604051808303816000865af19150503d8060008114612693576040519150601f19603f3d011682016040523d82523d6000602084013e612698565b606091505b50915091506126a6816131d2565b8180156126cf57506000815114806126ce5750808060200190518101906126cd9190613559565b5b5b61270e576040517f08c379a000000000000000000000000000000000000000000000000000000000815260040161270590613d50565b60405180910390fd5b5050505050565b60008082148061273d57508282838561272e9190614001565b92508261273b9190613f7a565b145b61277c576040517f08c379a000000000000000000000000000000000000000000000000000000000815260040161277390613c10565b60405180910390fd5b92915050565b6000828284612791919061405b565b91508111156127d5576040517f08c379a00000000000000000000000000000000000000000000000000000000081526004016127cc90613bb0565b60405180910390fd5b92915050565b6dffffffffffffffffffffffffffff8016841115801561280b57506dffffffffffffffffffffffffffff80168311155b61284a576040517f08c379a000000000000000000000000000000000000000000000000000000000815260040161284190613d30565b60405180910390fd5b60006401000000004261285d9190614209565b905060006008601c9054906101000a900463ffffffff168261287f919061408f565b905060008163ffffffff161180156128a857506000846dffffffffffffffffffffffffffff1614155b80156128c557506000836dffffffffffffffffffffffffffff1614155b156129cb578063ffffffff1661290a856128de8661326b565b7bffffffffffffffffffffffffffffffffffffffffffffffffffffffff1661329f90919063ffffffff16565b7bffffffffffffffffffffffffffffffffffffffffffffffffffffffff166129329190614001565b600960008282546129439190613ec2565b925050819055508063ffffffff1661298a8461295e8761326b565b7bffffffffffffffffffffffffffffffffffffffffffffffffffffffff1661329f90919063ffffffff16565b7bffffffffffffffffffffffffffffffffffffffffffffffffffffffff166129b29190614001565b600a60008282546129c39190613ec2565b925050819055505b85600860006101000a8154816dffffffffffffffffffffffffffff02191690836dffffffffffffffffffffffffffff160217905550846008600e6101000a8154816dffffffffffffffffffffffffffff02191690836dffffffffffffffffffffffffffff160217905550816008601c6101000a81548163ffffffff021916908363ffffffff1602179055507f1c411e9a96e071241c2f21f7726b17ae89e3cab4c78be50e062b03a9fffbbad1600860009054906101000a90046dffffffffffffffffffffffffffff166008600e9054906101000a90046dffffffffffffffffffffffffffff16604051612abf929190613d70565b60405180910390a1505050505050565b80600260008573ffffffffffffffffffffffffffffffffffffffff1673ffffffffffffffffffffffffffffffffffffffff16815260200190815260200160002060008473ffffffffffffffffffffffffffffffffffffffff1673ffffffffffffffffffffffffffffffffffffffff168152602001908152602001600020819055508173ffffffffffffffffffffffffffffffffffffffff168373ffffffffffffffffffffffffffffffffffffffff167f8c5be1e5ebec7d5bd14f71427d1e84f3dd0314c0f7b2291e5b200ac8c7c3b92583604051612bad9190613dd0565b60405180910390a3505050565b80600160008573ffffffffffffffffffffffffffffffffffffffff1673ffffffffffffffffffffffffffffffffffffffff16815260200190815260200160002054612c05919061405b565b600160008573ffffffffffffffffffffffffffffffffffffffff1673ffffffffffffffffffffffffffffffffffffffff1681526020019081526020016000208190555080600160008473ffffffffffffffffffffffffffffffffffffffff1673ffffffffffffffffffffffffffffffffffffffff16815260200190815260200160002054612c939190613ec2565b600160008473ffffffffffffffffffffffffffffffffffffffff1673ffffffffffffffffffffffffffffffffffffffff168152602001908152602001600020819055508173ffffffffffffffffffffffffffffffffffffffff168373ffffffffffffffffffffffffffffffffffffffff167fddf252ad1be2c89b69c2b068fc378daa952ba7f163c4a11628f55a4df523b3ef83604051612d339190613dd0565b60405180910390a3505050565b600080600560009054906101000a900473ffffffffffffffffffffffffffffffffffffffff1673ffffffffffffffffffffffffffffffffffffffff1663017e7e586040518163ffffffff1660e01b815260040160206040518083038186803b158015612dab57600080fd5b505afa158015612dbf573d6000803e3d6000fd5b505050506040513d601f19601f82011682018060405250810190612de391906133cb565b9050600073ffffffffffffffffffffffffffffffffffffffff168173ffffffffffffffffffffffffffffffffffffffff16141591506000600b5490508215612ee35760008114612ede576000612e63856dffffffffffffffffffffffffffff16876dffffffffffffffffffffffffffff16612e5e9190614001565b612efd565b90506000612e7083612efd565b905080821115612edb5760008183612e88919061405b565b600054612e959190614001565b9050600082600585612ea79190614001565b612eb19190613ec2565b905060008183612ec19190613f7a565b90506000811115612ed757612ed68782612f77565b5b5050505b50505b612ef5565b60008114612ef4576000600b819055505b5b505092915050565b60006003821115612f645781905060006001600284612f1c9190613f7a565b612f269190613ec2565b90505b81811015612f5e578091506002818285612f439190613f7a565b612f4d9190613ec2565b612f579190613f7a565b9050612f29565b50612f72565b60008214612f7157600190505b5b919050565b80600054612f859190613ec2565b60008190555080600160008473ffffffffffffffffffffffffffffffffffffffff1673ffffffffffffffffffffffffffffffffffffffff16815260200190815260200160002054612fd69190613ec2565b600160008473ffffffffffffffffffffffffffffffffffffffff1673ffffffffffffffffffffffffffffffffffffffff168152602001908152602001600020819055508173ffffffffffffffffffffffffffffffffffffffff16600073ffffffffffffffffffffffffffffffffffffffff167fddf252ad1be2c89b69c2b068fc378daa952ba7f163c4a11628f55a4df523b3ef836040516130779190613dd0565b60405180910390a35050565b6000818311156130935781613095565b825b905092915050565b80600160008473ffffffffffffffffffffffffffffffffffffffff1673ffffffffffffffffffffffffffffffffffffffff168152602001908152602001600020546130e8919061405b565b600160008473ffffffffffffffffffffffffffffffffffffffff1673ffffffffffffffffffffffffffffffffffffffff1681526020019081526020016000208190555080600054613139919061405b565b600081905550600073ffffffffffffffffffffffffffffffffffffffff168273ffffffffffffffffffffffffffffffffffffffff167fddf252ad1be2c89b69c2b068fc378daa952ba7f163c4a11628f55a4df523b3ef8360405161319d9190613dd0565b60405180910390a35050565b60008151905060006a636f6e736f6c652e6c6f679050602083016000808483855afa5050505050565b613268816040516024016131e69190613b0b565b6040516020818303038152906040527f41304fac000000000000000000000000000000000000000000000000000000007bffffffffffffffffffffffffffffffffffffffffffffffffffffffff19166020820180517bffffffffffffffffffffffffffffffffffffffffffffffffffffffff83818316178352505050506131a9565b50565b60006e010000000000000000000000000000826dffffffffffffffffffffffffffff166132989190613fab565b9050919050565b6000816dffffffffffffffffffffffffffff16836132bd9190613f49565b905092915050565b6000813590506132d4816145ce565b92915050565b6000815190506132e9816145ce565b92915050565b6000815190506132fe816145e5565b92915050565b600081359050613313816145fc565b92915050565b60008083601f84011261332b57600080fd5b8235905067ffffffffffffffff81111561334457600080fd5b60208301915083600182028301111561335c57600080fd5b9250929050565b60008135905061337281614613565b92915050565b60008151905061338781614613565b92915050565b60008135905061339c8161462a565b92915050565b6000602082840312156133b457600080fd5b60006133c2848285016132c5565b91505092915050565b6000602082840312156133dd57600080fd5b60006133eb848285016132da565b91505092915050565b6000806040838503121561340757600080fd5b6000613415858286016132c5565b9250506020613426858286016132c5565b9150509250929050565b60008060006060848603121561344557600080fd5b6000613453868287016132c5565b9350506020613464868287016132c5565b925050604061347586828701613363565b9150509250925092565b600080600080600080600060e0888a03121561349a57600080fd5b60006134a88a828b016132c5565b97505060206134b98a828b016132c5565b96505060406134ca8a828b01613363565b95505060606134db8a828b01613363565b94505060806134ec8a828b0161338d565b93505060a06134fd8a828b01613304565b92505060c061350e8a828b01613304565b91505092959891949750929550565b6000806040838503121561353057600080fd5b600061353e858286016132c5565b925050602061354f85828601613363565b9150509250929050565b60006020828403121561356b57600080fd5b6000613579848285016132ef565b91505092915050565b60006020828403121561359457600080fd5b60006135a284828501613378565b91505092915050565b6000806000806000608086880312156135c357600080fd5b60006135d188828901613363565b95505060206135e288828901613363565b94505060406135f3888289016132c5565b935050606086013567ffffffffffffffff81111561361057600080fd5b61361c88828901613319565b92509250509295509295909350565b613634816140c3565b82525050565b613643816140d5565b82525050565b613652816140e1565b82525050565b613669613664826140e1565b6141ff565b82525050565b600061367b8385613e8a565b9350613688838584614174565b61369183614298565b840190509392505050565b60006136a782613e74565b6136b18185613e9b565b93506136c1818560208601614183565b80840191505092915050565b60006136d882613e7f565b6136e28185613ea6565b93506136f2818560208601614183565b6136fb81614298565b840191505092915050565b6000613713601583613ea6565b915061371e826142a9565b602082019050919050565b6000613736602583613ea6565b9150613741826142d2565b604082019050919050565b6000613759602483613ea6565b915061376482614321565b604082019050919050565b600061377c601483613ea6565b915061378782614370565b602082019050919050565b600061379f601583613ea6565b91506137aa82614399565b602082019050919050565b60006137c2601c83613ea6565b91506137cd826143c2565b602082019050919050565b60006137e5600283613eb7565b91506137f0826143eb565b600282019050919050565b6000613808602183613ea6565b915061381382614414565b604082019050919050565b600061382b601283613ea6565b915061383682614463565b602082019050919050565b600061384e601183613ea6565b91506138598261448c565b602082019050919050565b6000613871602883613ea6565b915061387c826144b5565b604082019050919050565b6000613894602883613ea6565b915061389f82614504565b604082019050919050565b60006138b7601483613ea6565b91506138c282614553565b602082019050919050565b60006138da601383613ea6565b91506138e58261457c565b602082019050919050565b60006138fd601a83613ea6565b9150613908826145a5565b602082019050919050565b61391c816140eb565b82525050565b61392b8161414d565b82525050565b61393a81614157565b82525050565b61394981614167565b82525050565b600061395b828461369c565b915081905092915050565b6000613971826137d8565b915061397d8285613658565b60208201915061398d8284613658565b6020820191508190509392505050565b60006020820190506139b2600083018461362b565b92915050565b60006040820190506139cd600083018561362b565b6139da6020830184613922565b9392505050565b60006080820190506139f6600083018861362b565b613a036020830187613922565b613a106040830186613922565b8181036060830152613a2381848661366f565b90509695505050505050565b6000602082019050613a44600083018461363a565b92915050565b6000602082019050613a5f6000830184613649565b92915050565b600060c082019050613a7a6000830189613649565b613a87602083018861362b565b613a94604083018761362b565b613aa16060830186613922565b613aae6080830185613922565b613abb60a0830184613922565b979650505050505050565b6000608082019050613adb6000830187613649565b613ae86020830186613940565b613af56040830185613649565b613b026060830184613649565b95945050505050565b60006020820190508181036000830152613b2581846136cd565b905092915050565b60006040820190508181036000830152613b4781856136cd565b9050613b566020830184613922565b9392505050565b60006080820190508181036000830152613b7781876136cd565b9050613b866020830186613922565b8181036040830152613b9881856136cd565b9050613ba76060830184613922565b95945050505050565b60006020820190508181036000830152613bc981613706565b9050919050565b60006020820190508181036000830152613be981613729565b9050919050565b60006020820190508181036000830152613c098161374c565b9050919050565b60006020820190508181036000830152613c298161376f565b9050919050565b60006020820190508181036000830152613c4981613792565b9050919050565b60006020820190508181036000830152613c69816137b5565b9050919050565b60006020820190508181036000830152613c89816137fb565b9050919050565b60006020820190508181036000830152613ca98161381e565b9050919050565b60006020820190508181036000830152613cc981613841565b9050919050565b60006020820190508181036000830152613ce981613864565b9050919050565b60006020820190508181036000830152613d0981613887565b9050919050565b60006020820190508181036000830152613d29816138aa565b9050919050565b60006020820190508181036000830152613d49816138cd565b9050919050565b60006020820190508181036000830152613d69816138f0565b9050919050565b6000604082019050613d856000830185613913565b613d926020830184613913565b9392505050565b6000606082019050613dae6000830186613913565b613dbb6020830185613913565b613dc86040830184613931565b949350505050565b6000602082019050613de56000830184613922565b92915050565b6000604082019050613e006000830185613922565b613e0d6020830184613922565b9392505050565b6000608082019050613e296000830187613922565b613e366020830186613922565b613e436040830185613922565b613e506060830184613922565b95945050505050565b6000602082019050613e6e6000830184613940565b92915050565b600081519050919050565b600081519050919050565b600082825260208201905092915050565b600081905092915050565b600082825260208201905092915050565b600081905092915050565b6000613ecd8261414d565b9150613ed88361414d565b9250827fffffffffffffffffffffffffffffffffffffffffffffffffffffffffffffffff03821115613f0d57613f0c61423a565b5b828201905092915050565b6000613f23826140eb565b9150613f2e836140eb565b925082613f3e57613f3d614269565b5b828204905092915050565b6000613f5482614125565b9150613f5f83614125565b925082613f6f57613f6e614269565b5b828204905092915050565b6000613f858261414d565b9150613f908361414d565b925082613fa057613f9f614269565b5b828204905092915050565b6000613fb682614125565b9150613fc183614125565b9250817bffffffffffffffffffffffffffffffffffffffffffffffffffffffff0483118215151615613ff657613ff561423a565b5b828202905092915050565b600061400c8261414d565b91506140178361414d565b9250817fffffffffffffffffffffffffffffffffffffffffffffffffffffffffffffffff04831182151516156140505761404f61423a565b5b828202905092915050565b60006140668261414d565b91506140718361414d565b9250828210156140845761408361423a565b5b828203905092915050565b600061409a82614157565b91506140a583614157565b9250828210156140b8576140b761423a565b5b828203905092915050565b60006140ce82614105565b9050919050565b60008115159050919050565b6000819050919050565b60006dffffffffffffffffffffffffffff82169050919050565b600073ffffffffffffffffffffffffffffffffffffffff82169050919050565b60007bffffffffffffffffffffffffffffffffffffffffffffffffffffffff82169050919050565b6000819050919050565b600063ffffffff82169050919050565b600060ff82169050919050565b82818337600083830152505050565b60005b838110156141a1578082015181840152602081019050614186565b838111156141b0576000848401525b50505050565b60006141c18261414d565b91507fffffffffffffffffffffffffffffffffffffffffffffffffffffffffffffffff8214156141f4576141f361423a565b5b600182019050919050565b6000819050919050565b60006142148261414d565b915061421f8361414d565b92508261422f5761422e614269565b5b828206905092915050565b7f4e487b7100000000000000000000000000000000000000000000000000000000600052601160045260246000fd5b7f4e487b7100000000000000000000000000000000000000000000000000000000600052601260045260246000fd5b6000601f19601f8301169050919050565b7f64732d6d6174682d7375622d756e646572666c6f770000000000000000000000600082015250565b7f556e697377617056323a20494e53554646494349454e545f4f55545055545f4160008201527f4d4f554e54000000000000000000000000000000000000000000000000000000602082015250565b7f556e697377617056323a20494e53554646494349454e545f494e5055545f414d60008201527f4f554e5400000000000000000000000000000000000000000000000000000000602082015250565b7f64732d6d6174682d6d756c2d6f766572666c6f77000000000000000000000000600082015250565b7f556e697377617056323a20494e56414c49445f544f0000000000000000000000600082015250565b7f556e697377617056323a20494e56414c49445f5349474e415455524500000000600082015250565b7f1901000000000000000000000000000000000000000000000000000000000000600082015250565b7f556e697377617056323a20494e53554646494349454e545f4c4951554944495460008201527f5900000000000000000000000000000000000000000000000000000000000000602082015250565b7f556e697377617056323a20455850495245440000000000000000000000000000600082015250565b7f556e697377617056323a204c4f434b4544000000000000000000000000000000600082015250565b7f556e697377617056323a20494e53554646494349454e545f4c4951554944495460008201527f595f4255524e4544000000000000000000000000000000000000000000000000602082015250565b7f556e697377617056323a20494e53554646494349454e545f4c4951554944495460008201527f595f4d494e544544000000000000000000000000000000000000000000000000602082015250565b7f556e697377617056323a20464f5242494444454e000000000000000000000000600082015250565b7f556e697377617056323a204f564552464c4f5700000000000000000000000000600082015250565b7f556e697377617056323a205452414e534645525f4641494c4544000000000000600082015250565b6145d7816140c3565b81146145e257600080fd5b50565b6145ee816140d5565b81146145f957600080fd5b50565b614605816140e1565b811461461057600080fd5b50565b61461c8161414d565b811461462757600080fd5b50565b61463381614167565b811461463e57600080fd5b5056fea264697066735822122066497723f9eebd8d1a62352d30dc7062b14da0c96a185ca18d58f2cd34a09abd64736f6c63430008040033a2646970667358221220b07656c1e13c3529d6ab64bde56b43086930cff4e8dceef5865ae5d99c2dc6d364736f6c63430008040033",
  "linkReferences": {},
  "deployedLinkReferences": {}
}